20231118-03:45:31.000000000 : 8=FIX.4.2|9=84|35=A|34=1|49=OPS_CANDIDATE_9_2308|52=20231118-03:45:31.000|56=DTL|98=0|108=30|141=Y|10=149|
20231118-03:45:31.000000000 : 8=FIX.4.2|9=84|35=A|34=1|49=DTL|52=20231118-03:45:31.392|56=OPS_CANDIDATE_9_2308|98=0|108=30|141=Y|10=163|
20231118-03:45:38.000000000 : 8=FIX.4.2|9=175|35=D|34=2|49=OPS_CANDIDATE_9_2308|52=20231118-03:45:38.000|56=DTL|11=00000|21=3|38=487|40=2|44=126.905500132004|54=1|55=MSFT|58=New Order Single|59=0|60=20231118-03:45:38.117|10=183|
20231118-03:45:38.000000000 : 8=FIX.4.2|9=175|35=D|34=3|49=OPS_CANDIDATE_9_2308|52=20231118-03:45:38.000|56=DTL|11=00001|21=3|38=413|40=2|44=114.040819587555|54=1|55=MSFT|58=New Order Single|59=0|60=20231118-03:45:38.118|10=200|
20231118-03:45:38.000000000 : 8=FIX.4.2|9=146|35=F|34=4|49=OPS_CANDIDATE_9_2308|52=20231118-03:45:38.000|56=DTL|11=00002|41=00001|54=1|55=MSFT|58=Order Cancel Request|60=20231118-03:45:38.119|10=090|
20231118-03:45:38.000000000 : 8=FIX.4.2|9=173|35=D|34=5|49=OPS_CANDIDATE_9_2308|52=20231118-03:45:38.000|56=DTL|11=00003|21=3|38=457|40=2|44=190.20492635948|54=1|55=BAC|58=New Order Single|59=0|60=20231118-03:45:38.119|10=046|
20231118-03:45:38.000000000 : 8=FIX.4.2|9=146|35=F|34=6|49=OPS_CANDIDATE_9_2308|52=20231118-03:45:38.000|56=DTL|11=00004|41=00002|54=1|55=MSFT|58=Order Cancel Request|60=20231118-03:45:38.119|10=095|
20231118-03:45:38.000000000 : 8=FIX.4.2|9=175|35=D|34=7|49=OPS_CANDIDATE_9_2308|52=20231118-03:45:38.000|56=DTL|11=00005|21=3|38=262|40=2|44=177.963673759067|54=1|55=MSFT|58=New Order Single|59=0|60=20231118-03:45:38.119|10=231|
20231118-03:45:38.000000000 : 8=FIX.4.2|9=175|35=D|34=8|49=OPS_CANDIDATE_9_2308|52=20231118-03:45:38.000|56=DTL|11=00006|21=3|38=494|40=2|44=118.068098809318|54=1|55=MSFT|58=New Order Single|59=0|60=20231118-03:45:38.120|10=219|
20231118-03:45:38.000000000 : 8=FIX.4.2|9=146|35=F|34=9|49=OPS_CANDIDATE_9_2308|52=20231118-03:45:38.000|56=DTL|11=00007|41=00006|54=1|55=MSFT|58=Order Cancel Request|60=20231118-03:45:38.120|10=097|
20231118-03:45:38.000000000 : 8=FIX.4.2|9=176|35=D|34=10|49=OPS_CANDIDATE_9_2308|52=20231118-03:45:38.000|56=DTL|11=00008|21=3|38=341|40=2|44=158.551169018405|54=1|55=AAPL|58=New Order Single|59=0|60=20231118-03:45:38.120|10=215|
20231118-03:45:38.000000000 : 8=FIX.4.2|9=147|35=F|34=11|49=OPS_CANDIDATE_9_2308|52=20231118-03:45:38.000|56=DTL|11=00009|41=00001|54=1|55=MSFT|58=Order Cancel Request|60=20231118-03:45:38.121|10=137|
20231118-03:45:38.000000000 : 8=FIX.4.2|9=175|35=D|34=12|49=OPS_CANDIDATE_9_2308|52=20231118-03:45:38.000|56=DTL|11=00010|21=3|38=373|40=2|44=171.938278536009|54=1|55=BAC|58=New Order Single|59=0|60=20231118-03:45:38.121|10=137|
20231118-03:45:38.000000000 : 8=FIX.4.2|9=175|35=D|34=13|49=OPS_CANDIDATE_9_2308|52=20231118-03:45:38.000|56=DTL|11=00011|21=3|38=408|40=2|44=190.708011107907|54=1|55=BAC|58=New Order Single|59=0|60=20231118-03:45:38.122|10=121|
20231118-03:45:38.000000000 : 8=FIX.4.2|9=176|35=D|34=14|49=OPS_CANDIDATE_9_2308|52=20231118-03:45:38.000|56=DTL|11=00012|21=3|38=181|40=2|44=148.145092054048|54=1|55=MSFT|58=New Order Single|59=0|60=20231118-03:45:38.122|10=242|
20231118-03:45:38.000000000 : 8=FIX.4.2|9=147|35=F|34=15|49=OPS_CANDIDATE_9_2308|52=20231118-03:45:38.000|56=DTL|11=00013|41=00004|54=1|55=MSFT|58=Order Cancel Request|60=20231118-03:45:38.122|10=140|
20231118-03:45:38.000000000 : 8=FIX.4.2|9=175|35=D|34=16|49=OPS_CANDIDATE_9_2308|52=20231118-03:45:38.000|56=DTL|11=00014|21=3|38=471|40=2|44=127.454570450938|54=1|55=BAC|58=New Order Single|59=0|60=20231118-03:45:38.122|10=140|
20231118-03:45:38.000000000 : 8=FIX.4.2|9=176|35=D|34=17|49=OPS_CANDIDATE_9_2308|52=20231118-03:45:38.000|56=DTL|11=00015|21=3|38=287|40=2|44=113.734138312303|54=1|55=AAPL|58=New Order Single|59=0|60=20231118-03:45:38.123|10=216|
20231118-03:45:38.000000000 : 8=FIX.4.2|9=175|35=D|34=18|49=OPS_CANDIDATE_9_2308|52=20231118-03:45:38.000|56=DTL|11=00016|21=3|38=284|40=2|44=136.330170488735|54=1|55=BAC|58=New Order Single|59=0|60=20231118-03:45:38.123|10=142|
20231118-03:45:38.000000000 : 8=FIX.4.2|9=176|35=D|34=19|49=OPS_CANDIDATE_9_2308|52=20231118-03:45:38.000|56=DTL|11=00017|21=3|38=125|40=2|44=156.361039820523|54=1|55=MSFT|58=New Order Single|59=0|60=20231118-03:45:38.124|10=251|
20231118-03:45:38.000000000 : 8=FIX.4.2|9=175|35=D|34=20|49=OPS_CANDIDATE_9_2308|52=20231118-03:45:38.000|56=DTL|11=00018|21=3|38=174|40=2|44=165.547878478105|54=1|55=BAC|58=New Order Single|59=0|60=20231118-03:45:38.124|10=153|
20231118-03:45:38.000000000 : 8=FIX.4.2|9=147|35=F|34=21|49=OPS_CANDIDATE_9_2308|52=20231118-03:45:38.000|56=DTL|11=00019|41=00007|54=1|55=MSFT|58=Order Cancel Request|60=20231118-03:45:38.124|10=148|
20231118-03:45:38.000000000 : 8=FIX.4.2|9=174|35=D|34=22|49=OPS_CANDIDATE_9_2308|52=20231118-03:45:38.000|56=DTL|11=00020|21=3|38=195|40=2|44=158.89328169234|54=1|55=BAC|58=New Order Single|59=0|60=20231118-03:45:38.124|10=095|
20231118-03:45:38.000000000 : 8=FIX.4.2|9=146|35=F|34=23|49=OPS_CANDIDATE_9_2308|52=20231118-03:45:38.000|56=DTL|11=00021|41=00014|54=1|55=BAC|58=Order Cancel Request|60=20231118-03:45:38.125|10=025|
20231118-03:45:38.000000000 : 8=FIX.4.2|9=175|35=D|34=24|49=OPS_CANDIDATE_9_2308|52=20231118-03:45:38.000|56=DTL|11=00022|21=3|38=119|40=2|44=180.693121722715|54=1|55=BAC|58=New Order Single|59=0|60=20231118-03:45:38.125|10=131|
20231118-03:45:38.000000000 : 8=FIX.4.2|9=147|35=F|34=25|49=OPS_CANDIDATE_9_2308|52=20231118-03:45:38.000|56=DTL|11=00023|41=00009|54=1|55=MSFT|58=Order Cancel Request|60=20231118-03:45:38.125|10=150|
20231118-03:45:38.000000000 : 8=FIX.4.2|9=176|35=D|34=26|49=OPS_CANDIDATE_9_2308|52=20231118-03:45:38.000|56=DTL|11=00024|21=3|38=172|40=2|44=157.777139339361|54=1|55=MSFT|58=New Order Single|59=0|60=20231118-03:45:38.126|10=013|
20231118-03:45:38.000000000 : 8=FIX.4.2|9=175|35=D|34=27|49=OPS_CANDIDATE_9_2308|52=20231118-03:45:38.000|56=DTL|11=00025|21=3|38=293|40=2|44=105.434966597394|54=1|55=BAC|58=New Order Single|59=0|60=20231118-03:45:38.126|10=161|
20231118-03:45:38.000000000 : 8=FIX.4.2|9=146|35=F|34=28|49=OPS_CANDIDATE_9_2308|52=20231118-03:45:38.000|56=DTL|11=00026|41=00018|54=1|55=BAC|58=Order Cancel Request|60=20231118-03:45:38.126|10=040|
20231118-03:45:38.000000000 : 8=FIX.4.2|9=176|35=D|34=29|49=OPS_CANDIDATE_9_2308|52=20231118-03:45:38.000|56=DTL|11=00027|21=3|38=294|40=2|44=164.046900452253|54=1|55=MSFT|58=New Order Single|59=0|60=20231118-03:45:38.126|10=003|
20231118-03:45:38.000000000 : 8=FIX.4.2|9=146|35=F|34=30|49=OPS_CANDIDATE_9_2308|52=20231118-03:45:38.000|56=DTL|11=00028|41=00011|54=1|55=BAC|58=Order Cancel Request|60=20231118-03:45:38.127|10=029|
20231118-03:45:38.000000000 : 8=FIX.4.2|9=175|35=D|34=31|49=OPS_CANDIDATE_9_2308|52=20231118-03:45:38.000|56=DTL|11=00029|21=3|38=213|40=2|44=171.096409508238|54=1|55=BAC|58=New Order Single|59=0|60=20231118-03:45:38.127|10=141|
20231118-03:45:38.000000000 : 8=FIX.4.2|9=175|35=D|34=32|49=OPS_CANDIDATE_9_2308|52=20231118-03:45:38.000|56=DTL|11=00030|21=3|38=459|40=2|44=156.158452481646|54=1|55=BAC|58=New Order Single|59=0|60=20231118-03:45:38.127|10=149|
20231118-03:45:38.000000000 : 8=FIX.4.2|9=147|35=F|34=33|49=OPS_CANDIDATE_9_2308|52=20231118-03:45:38.000|56=DTL|11=00031|41=00024|54=1|55=MSFT|58=Order Cancel Request|60=20231118-03:45:38.128|10=148|
20231118-03:45:38.000000000 : 8=FIX.4.2|9=176|35=D|34=34|49=OPS_CANDIDATE_9_2308|52=20231118-03:45:38.000|56=DTL|11=00032|21=3|38=438|40=2|44=154.634261946517|54=1|55=MSFT|58=New Order Single|59=0|60=20231118-03:45:38.128|10=010|
20231118-03:45:38.000000000 : 8=FIX.4.2|9=176|35=D|34=35|49=OPS_CANDIDATE_9_2308|52=20231118-03:45:38.000|56=DTL|11=00033|21=3|38=460|40=2|44=136.798960729985|54=1|55=AAPL|58=New Order Single|59=0|60=20231118-03:45:38.128|10=004|
20231118-03:45:38.000000000 : 8=FIX.4.2|9=176|35=D|34=36|49=OPS_CANDIDATE_9_2308|52=20231118-03:45:38.000|56=DTL|11=00034|21=3|38=159|40=2|44=121.493189689146|54=1|55=AAPL|58=New Order Single|59=0|60=20231118-03:45:38.129|10=251|
20231118-03:45:38.000000000 : 8=FIX.4.2|9=175|35=D|34=37|49=OPS_CANDIDATE_9_2308|52=20231118-03:45:38.000|56=DTL|11=00035|21=3|38=308|40=2|44=157.770343692193|54=1|55=BAC|58=New Order Single|59=0|60=20231118-03:45:38.129|10=155|
20231118-03:45:38.000000000 : 8=FIX.4.2|9=146|35=F|34=38|49=OPS_CANDIDATE_9_2308|52=20231118-03:45:38.000|56=DTL|11=00036|41=00035|54=1|55=BAC|58=Order Cancel Request|60=20231118-03:45:38.129|10=044|
20231118-03:45:38.000000000 : 8=FIX.4.2|9=176|35=D|34=39|49=OPS_CANDIDATE_9_2308|52=20231118-03:45:38.000|56=DTL|11=00037|21=3|38=214|40=2|44=165.196321158335|54=1|55=MSFT|58=New Order Single|59=0|60=20231118-03:45:38.129|10=008|
20231118-03:45:38.000000000 : 8=FIX.4.2|9=146|35=F|34=40|49=OPS_CANDIDATE_9_2308|52=20231118-03:45:38.000|56=DTL|11=00038|41=00003|54=1|55=BAC|58=Order Cancel Request|60=20231118-03:45:38.130|10=026|
20231118-03:45:38.000000000 : 8=FIX.4.2|9=175|35=D|34=41|49=OPS_CANDIDATE_9_2308|52=20231118-03:45:38.000|56=DTL|11=00039|21=3|38=379|40=2|44=181.224326631199|54=1|55=BAC|58=New Order Single|59=0|60=20231118-03:45:38.130|10=145|
20231118-03:45:38.000000000 : 8=FIX.4.2|9=176|35=D|34=42|49=OPS_CANDIDATE_9_2308|52=20231118-03:45:38.000|56=DTL|11=00040|21=3|38=483|40=2|44=125.708572097891|54=1|55=MSFT|58=New Order Single|59=0|60=20231118-03:45:38.130|10=008|
20231118-03:45:38.000000000 : 8=FIX.4.2|9=176|35=D|34=43|49=OPS_CANDIDATE_9_2308|52=20231118-03:45:38.000|56=DTL|11=00041|21=3|38=298|40=2|44=160.416249150503|54=1|55=MSFT|58=New Order Single|59=0|60=20231118-03:45:38.131|10=247|
20231118-03:45:38.000000000 : 8=FIX.4.2|9=147|35=F|34=44|49=OPS_CANDIDATE_9_2308|52=20231118-03:45:38.000|56=DTL|11=00042|41=00015|54=1|55=AAPL|58=Order Cancel Request|60=20231118-03:45:38.131|10=118|
20231118-03:45:38.000000000 : 8=FIX.4.2|9=175|35=D|34=45|49=OPS_CANDIDATE_9_2308|52=20231118-03:45:38.000|56=DTL|11=00043|21=3|38=349|40=2|44=102.326703002006|54=1|55=BAC|58=New Order Single|59=0|60=20231118-03:45:38.131|10=116|
20231118-03:45:38.000000000 : 8=FIX.4.2|9=175|35=D|34=46|49=OPS_CANDIDATE_9_2308|52=20231118-03:45:38.000|56=DTL|11=00044|21=3|38=431|40=2|44=167.088620705156|54=1|55=BAC|58=New Order Single|59=0|60=20231118-03:45:38.132|10=141|
20231118-03:45:38.000000000 : 8=FIX.4.2|9=146|35=F|34=47|49=OPS_CANDIDATE_9_2308|52=20231118-03:45:38.000|56=DTL|11=00045|41=00010|54=1|55=BAC|58=Order Cancel Request|60=20231118-03:45:38.132|10=031|
20231118-03:45:38.000000000 : 8=FIX.4.2|9=175|35=D|34=48|49=OPS_CANDIDATE_9_2308|52=20231118-03:45:38.000|56=DTL|11=00046|21=3|38=229|40=2|44=111.766406383462|54=1|55=BAC|58=New Order Single|59=0|60=20231118-03:45:38.132|10=146|
20231118-03:45:38.000000000 : 8=FIX.4.2|9=146|35=F|34=49|49=OPS_CANDIDATE_9_2308|52=20231118-03:45:38.000|56=DTL|11=00047|41=00035|54=1|55=BAC|58=Order Cancel Request|60=20231118-03:45:38.132|10=042|
20231118-03:45:38.000000000 : 8=FIX.4.2|9=176|35=D|34=50|49=OPS_CANDIDATE_9_2308|52=20231118-03:45:38.000|56=DTL|11=00048|21=3|38=344|40=2|44=172.050657148673|54=1|55=MSFT|58=New Order Single|59=0|60=20231118-03:45:38.133|10=005|
20231118-03:45:38.000000000 : 8=FIX.4.2|9=175|35=D|34=51|49=OPS_CANDIDATE_9_2308|52=20231118-03:45:38.000|56=DTL|11=00049|21=3|38=123|40=2|44=158.72417345309|54=1|55=AAPL|58=New Order Single|59=0|60=20231118-03:45:38.133|10=178|
20231118-03:45:38.000000000 : 8=FIX.4.2|9=174|35=D|34=52|49=OPS_CANDIDATE_9_2308|52=20231118-03:45:38.000|56=DTL|11=00050|21=3|38=268|40=2|44=189.41931646305|54=1|55=BAC|58=New Order Single|59=0|60=20231118-03:45:38.134|10=094|
20231118-03:45:38.000000000 : 8=FIX.4.2|9=147|35=F|34=53|49=OPS_CANDIDATE_9_2308|52=20231118-03:45:38.000|56=DTL|11=00051|41=00019|54=1|55=MSFT|58=Order Cancel Request|60=20231118-03:45:38.134|10=153|
20231118-03:45:38.000000000 : 8=FIX.4.2|9=176|35=D|34=54|49=OPS_CANDIDATE_9_2308|52=20231118-03:45:38.000|56=DTL|11=00052|21=3|38=470|40=2|44=130.978314744953|54=1|55=AAPL|58=New Order Single|59=0|60=20231118-03:45:38.135|10=240|
20231118-03:45:38.000000000 : 8=FIX.4.2|9=147|35=F|34=55|49=OPS_CANDIDATE_9_2308|52=20231118-03:45:38.000|56=DTL|11=00053|41=00007|54=1|55=MSFT|58=Order Cancel Request|60=20231118-03:45:38.137|10=157|
20231118-03:45:38.000000000 : 8=FIX.4.2|9=176|35=D|34=56|49=OPS_CANDIDATE_9_2308|52=20231118-03:45:38.000|56=DTL|11=00054|21=3|38=344|40=2|44=190.500426728929|54=1|55=MSFT|58=New Order Single|59=0|60=20231118-03:45:38.137|10=014|
20231118-03:45:38.000000000 : 8=FIX.4.2|9=176|35=D|34=57|49=OPS_CANDIDATE_9_2308|52=20231118-03:45:38.000|56=DTL|11=00055|21=3|38=200|40=2|44=199.099581446491|54=1|55=AAPL|58=New Order Single|59=0|60=20231118-03:45:38.138|10=251|
20231118-03:45:38.000000000 : 8=FIX.4.2|9=146|35=F|34=58|49=OPS_CANDIDATE_9_2308|52=20231118-03:45:38.000|56=DTL|11=00056|41=00030|54=1|55=BAC|58=Order Cancel Request|60=20231118-03:45:38.139|10=044|
20231118-03:45:38.000000000 : 8=FIX.4.2|9=176|35=D|34=59|49=OPS_CANDIDATE_9_2308|52=20231118-03:45:38.000|56=DTL|11=00057|21=3|38=203|40=2|44=151.028984371708|54=1|55=AAPL|58=New Order Single|59=0|60=20231118-03:45:38.139|10=244|
20231118-03:45:38.000000000 : 8=FIX.4.2|9=176|35=D|34=60|49=OPS_CANDIDATE_9_2308|52=20231118-03:45:38.000|56=DTL|11=00058|21=3|38=305|40=2|44=134.080615317866|54=1|55=MSFT|58=New Order Single|59=0|60=20231118-03:45:38.140|10=255|
20231118-03:45:38.000000000 : 8=FIX.4.2|9=175|35=D|34=61|49=OPS_CANDIDATE_9_2308|52=20231118-03:45:38.000|56=DTL|11=00059|21=3|38=358|40=2|44=137.172492084982|54=1|55=BAC|58=New Order Single|59=0|60=20231118-03:45:38.140|10=156|
20231118-03:45:38.000000000 : 8=FIX.4.2|9=175|35=D|34=62|49=OPS_CANDIDATE_9_2308|52=20231118-03:45:38.000|56=DTL|11=00060|21=3|38=437|40=2|44=128.129613367197|54=1|55=BAC|58=New Order Single|59=0|60=20231118-03:45:38.140|10=146|
20231118-03:45:38.000000000 : 8=FIX.4.2|9=174|35=D|34=63|49=OPS_CANDIDATE_9_2308|52=20231118-03:45:38.000|56=DTL|11=00061|21=3|38=483|40=2|44=161.28113421662|54=1|55=BAC|58=New Order Single|59=0|60=20231118-03:45:38.141|10=079|
20231118-03:45:38.000000000 : 8=FIX.4.2|9=175|35=D|34=64|49=OPS_CANDIDATE_9_2308|52=20231118-03:45:38.000|56=DTL|11=00062|21=3|38=180|40=2|44=164.287534041459|54=1|55=BAC|58=New Order Single|59=0|60=20231118-03:45:38.141|10=143|
20231118-03:45:38.000000000 : 8=FIX.4.2|9=175|35=D|34=65|49=OPS_CANDIDATE_9_2308|52=20231118-03:45:38.000|56=DTL|11=00063|21=3|38=395|40=2|44=162.50968609329|54=1|55=MSFT|58=New Order Single|59=0|60=20231118-03:45:38.141|10=224|
20231118-03:45:38.000000000 : 8=FIX.4.2|9=175|35=D|34=66|49=OPS_CANDIDATE_9_2308|52=20231118-03:45:38.000|56=DTL|11=00064|21=3|38=226|40=2|44=105.37453582084|54=1|55=AAPL|58=New Order Single|59=0|60=20231118-03:45:38.142|10=181|
20231118-03:45:38.000000000 : 8=FIX.4.2|9=176|35=D|34=67|49=OPS_CANDIDATE_9_2308|52=20231118-03:45:38.000|56=DTL|11=00065|21=3|38=446|40=2|44=128.552460385817|54=1|55=AAPL|58=New Order Single|59=0|60=20231118-03:45:38.142|10=246|
20231118-03:45:38.000000000 : 8=FIX.4.2|9=175|35=D|34=68|49=OPS_CANDIDATE_9_2308|52=20231118-03:45:38.000|56=DTL|11=00066|21=3|38=306|40=2|44=174.324995368922|54=1|55=BAC|58=New Order Single|59=0|60=20231118-03:45:38.142|10=163|
20231118-03:45:38.000000000 : 8=FIX.4.2|9=175|35=D|34=69|49=OPS_CANDIDATE_9_2308|52=20231118-03:45:38.000|56=DTL|11=00067|21=3|38=459|40=2|44=176.995572393585|54=1|55=BAC|58=New Order Single|59=0|60=20231118-03:45:38.143|10=185|
20231118-03:45:38.000000000 : 8=FIX.4.2|9=147|35=F|34=70|49=OPS_CANDIDATE_9_2308|52=20231118-03:45:38.000|56=DTL|11=00068|41=00047|54=1|55=MSFT|58=Order Cancel Request|60=20231118-03:45:38.143|10=161|
20231118-03:45:38.000000000 : 8=FIX.4.2|9=176|35=D|34=71|49=OPS_CANDIDATE_9_2308|52=20231118-03:45:38.000|56=DTL|11=00069|21=3|38=181|40=2|44=120.616800850183|54=1|55=AAPL|58=New Order Single|59=0|60=20231118-03:45:38.143|10=226|
20231118-03:45:38.000000000 : 8=FIX.4.2|9=147|35=F|34=72|49=OPS_CANDIDATE_9_2308|52=20231118-03:45:38.000|56=DTL|11=00070|41=00006|54=1|55=MSFT|58=Order Cancel Request|60=20231118-03:45:38.144|10=152|
20231118-03:45:38.000000000 : 8=FIX.4.2|9=175|35=D|34=73|49=OPS_CANDIDATE_9_2308|52=20231118-03:45:38.000|56=DTL|11=00071|21=3|38=450|40=2|44=172.20803719435|54=1|55=MSFT|58=New Order Single|59=0|60=20231118-03:45:38.144|10=203|
20231118-03:45:38.000000000 : 8=FIX.4.2|9=174|35=D|34=74|49=OPS_CANDIDATE_9_2308|52=20231118-03:45:38.000|56=DTL|11=00072|21=3|38=354|40=2|44=137.11883719938|54=1|55=BAC|58=New Order Single|59=0|60=20231118-03:45:38.144|10=108|
20231118-03:45:38.000000000 : 8=FIX.4.2|9=175|35=D|34=75|49=OPS_CANDIDATE_9_2308|52=20231118-03:45:38.000|56=DTL|11=00073|21=3|38=477|40=2|44=171.051171592904|54=1|55=BAC|58=New Order Single|59=0|60=20231118-03:45:38.145|10=150|
20231118-03:45:38.000000000 : 8=FIX.4.2|9=146|35=F|34=76|49=OPS_CANDIDATE_9_2308|52=20231118-03:45:38.000|56=DTL|11=00074|41=00030|54=1|55=BAC|58=Order Cancel Request|60=20231118-03:45:38.145|10=041|
20231118-03:45:38.000000000 : 8=FIX.4.2|9=176|35=D|34=77|49=OPS_CANDIDATE_9_2308|52=20231118-03:45:38.000|56=DTL|11=00075|21=3|38=477|40=2|44=153.040551156672|54=1|55=MSFT|58=New Order Single|59=0|60=20231118-03:45:38.145|10=013|
20231118-03:45:38.000000000 : 8=FIX.4.2|9=175|35=D|34=78|49=OPS_CANDIDATE_9_2308|52=20231118-03:45:38.000|56=DTL|11=00076|21=3|38=150|40=2|44=197.965996388979|54=1|55=BAC|58=New Order Single|59=0|60=20231118-03:45:38.146|10=197|
20231118-03:45:38.000000000 : 8=FIX.4.2|9=176|35=D|34=79|49=OPS_CANDIDATE_9_2308|52=20231118-03:45:38.000|56=DTL|11=00077|21=3|38=231|40=2|44=154.841439340591|54=1|55=MSFT|58=New Order Single|59=0|60=20231118-03:45:38.146|10=016|
20231118-03:45:38.000000000 : 8=FIX.4.2|9=175|35=D|34=80|49=OPS_CANDIDATE_9_2308|52=20231118-03:45:38.000|56=DTL|11=00078|21=3|38=162|40=2|44=102.083965653932|54=1|55=BAC|58=New Order Single|59=0|60=20231118-03:45:38.146|10=152|
20231118-03:45:38.000000000 : 8=FIX.4.2|9=147|35=F|34=81|49=OPS_CANDIDATE_9_2308|52=20231118-03:45:38.000|56=DTL|11=00079|41=00041|54=1|55=MSFT|58=Order Cancel Request|60=20231118-03:45:38.146|10=162|
20231118-03:45:38.000000000 : 8=FIX.4.2|9=176|35=D|34=82|49=OPS_CANDIDATE_9_2308|52=20231118-03:45:38.000|56=DTL|11=00080|21=3|38=182|40=2|44=102.339866004399|54=1|55=AAPL|58=New Order Single|59=0|60=20231118-03:45:38.147|10=240|
20231118-03:45:38.000000000 : 8=FIX.4.2|9=146|35=F|34=83|49=OPS_CANDIDATE_9_2308|52=20231118-03:45:38.000|56=DTL|11=00081|41=00059|54=1|55=BAC|58=Order Cancel Request|60=20231118-03:45:38.147|10=050|
20231118-03:45:38.000000000 : 8=FIX.4.2|9=175|35=D|34=84|49=OPS_CANDIDATE_9_2308|52=20231118-03:45:38.000|56=DTL|11=00082|21=3|38=462|40=2|44=132.687719549362|54=1|55=BAC|58=New Order Single|59=0|60=20231118-03:45:38.147|10=166|
20231118-03:45:38.000000000 : 8=FIX.4.2|9=175|35=D|34=85|49=OPS_CANDIDATE_9_2308|52=20231118-03:45:38.000|56=DTL|11=00083|21=3|38=378|40=2|44=115.436392066506|54=1|55=BAC|58=New Order Single|59=0|60=20231118-03:45:38.147|10=158|
20231118-03:45:38.000000000 : 8=FIX.4.2|9=176|35=D|34=86|49=OPS_CANDIDATE_9_2308|52=20231118-03:45:38.000|56=DTL|11=00084|21=3|38=276|40=2|44=158.927236211382|54=1|55=MSFT|58=New Order Single|59=0|60=20231118-03:45:38.148|10=022|
20231118-03:45:38.000000000 : 8=FIX.4.2|9=147|35=F|34=87|49=OPS_CANDIDATE_9_2308|52=20231118-03:45:38.000|56=DTL|11=00085|41=00004|54=1|55=MSFT|58=Order Cancel Request|60=20231118-03:45:38.148|10=166|
20231118-03:45:38.000000000 : 8=FIX.4.2|9=176|35=D|34=88|49=OPS_CANDIDATE_9_2308|52=20231118-03:45:38.000|56=DTL|11=00086|21=3|38=474|40=2|44=123.541189969199|54=1|55=AAPL|58=New Order Single|59=0|60=20231118-03:45:38.148|10=015|
20231118-03:45:38.000000000 : 8=FIX.4.2|9=147|35=F|34=89|49=OPS_CANDIDATE_9_2308|52=20231118-03:45:38.000|56=DTL|11=00087|41=00037|54=1|55=MSFT|58=Order Cancel Request|60=20231118-03:45:38.149|10=177|
20231118-03:45:38.000000000 : 8=FIX.4.2|9=176|35=D|34=90|49=OPS_CANDIDATE_9_2308|52=20231118-03:45:38.000|56=DTL|11=00088|21=3|38=253|40=2|44=158.677385841055|54=1|55=AAPL|58=New Order Single|59=0|60=20231118-03:45:38.149|10=002|
20231118-03:45:38.000000000 : 8=FIX.4.2|9=176|35=D|34=91|49=OPS_CANDIDATE_9_2308|52=20231118-03:45:38.000|56=DTL|11=00089|21=3|38=481|40=2|44=135.018524169048|54=1|55=AAPL|58=New Order Single|59=0|60=20231118-03:45:38.149|10=247|
20231118-03:45:38.000000000 : 8=FIX.4.2|9=146|35=F|34=92|49=OPS_CANDIDATE_9_2308|52=20231118-03:45:38.000|56=DTL|11=00090|41=00050|54=1|55=BAC|58=Order Cancel Request|60=20231118-03:45:38.149|10=043|
20231118-03:45:38.000000000 : 8=FIX.4.2|9=176|35=D|34=93|49=OPS_CANDIDATE_9_2308|52=20231118-03:45:38.000|56=DTL|11=00091|21=3|38=276|40=2|44=118.946587414166|54=1|55=MSFT|58=New Order Single|59=0|60=20231118-03:45:38.150|10=022|
20231118-03:45:38.000000000 : 8=FIX.4.2|9=147|35=F|34=94|49=OPS_CANDIDATE_9_2308|52=20231118-03:45:38.000|56=DTL|11=00092|41=00071|54=1|55=MSFT|58=Order Cancel Request|60=20231118-03:45:38.150|10=159|
20231118-03:45:38.000000000 : 8=FIX.4.2|9=176|35=D|34=95|49=OPS_CANDIDATE_9_2308|52=20231118-03:45:38.000|56=DTL|11=00093|21=3|38=307|40=2|44=195.633630088543|54=1|55=MSFT|58=New Order Single|59=0|60=20231118-03:45:38.150|10=014|
20231118-03:45:38.000000000 : 8=FIX.4.2|9=147|35=F|34=96|49=OPS_CANDIDATE_9_2308|52=20231118-03:45:38.000|56=DTL|11=00094|41=00015|54=1|55=AAPL|58=Order Cancel Request|60=20231118-03:45:38.150|10=133|
20231118-03:45:38.000000000 : 8=FIX.4.2|9=176|35=D|34=97|49=OPS_CANDIDATE_9_2308|52=20231118-03:45:38.000|56=DTL|11=00095|21=3|38=348|40=2|44=169.051235990458|54=1|55=AAPL|58=New Order Single|59=0|60=20231118-03:45:38.151|10=255|
20231118-03:45:38.000000000 : 8=FIX.4.2|9=176|35=D|34=98|49=OPS_CANDIDATE_9_2308|52=20231118-03:45:38.000|56=DTL|11=00096|21=3|38=259|40=2|44=168.212962549163|54=1|55=MSFT|58=New Order Single|59=0|60=20231118-03:45:38.152|10=029|
20231118-03:45:38.000000000 : 8=FIX.4.2|9=146|35=F|34=99|49=OPS_CANDIDATE_9_2308|52=20231118-03:45:38.000|56=DTL|11=00097|41=00029|54=1|55=BAC|58=Order Cancel Request|60=20231118-03:45:38.152|10=057|
20231118-03:45:38.000000000 : 8=FIX.4.2|9=177|35=D|34=100|49=OPS_CANDIDATE_9_2308|52=20231118-03:45:38.000|56=DTL|11=00098|21=3|38=138|40=2|44=152.406332983353|54=1|55=MSFT|58=New Order Single|59=0|60=20231118-03:45:38.153|10=053|
20231118-03:45:38.000000000 : 8=FIX.4.2|9=177|35=D|34=101|49=OPS_CANDIDATE_9_2308|52=20231118-03:45:38.000|56=DTL|11=00099|21=3|38=402|40=2|44=175.679442803556|54=1|55=MSFT|58=New Order Single|59=0|60=20231118-03:45:38.153|10=064|
20231118-03:45:38.000000000 : 8=FIX.4.2|9=177|35=D|34=102|49=OPS_CANDIDATE_9_2308|52=20231118-03:45:38.000|56=DTL|11=00100|21=3|38=318|40=2|44=162.573944088916|54=1|55=AAPL|58=New Order Single|59=0|60=20231118-03:45:38.153|10=027|
20231118-03:45:38.000000000 : 8=FIX.4.2|9=148|35=F|34=103|49=OPS_CANDIDATE_9_2308|52=20231118-03:45:38.000|56=DTL|11=00101|41=00033|54=1|55=AAPL|58=Order Cancel Request|60=20231118-03:45:38.154|10=164|
20231118-03:45:38.000000000 : 8=FIX.4.2|9=176|35=D|34=104|49=OPS_CANDIDATE_9_2308|52=20231118-03:45:38.000|56=DTL|11=00102|21=3|38=388|40=2|44=115.988196290358|54=1|55=BAC|58=New Order Single|59=0|60=20231118-03:45:38.154|10=208|
20231118-03:45:38.000000000 : 8=FIX.4.2|9=147|35=F|34=105|49=OPS_CANDIDATE_9_2308|52=20231118-03:45:38.000|56=DTL|11=00103|41=00044|54=1|55=BAC|58=Order Cancel Request|60=20231118-03:45:38.154|10=081|
20231118-03:45:38.000000000 : 8=FIX.4.2|9=177|35=D|34=106|49=OPS_CANDIDATE_9_2308|52=20231118-03:45:38.000|56=DTL|11=00104|21=3|38=290|40=2|44=135.650232060424|54=1|55=MSFT|58=New Order Single|59=0|60=20231118-03:45:38.155|10=034|
20231118-03:45:38.000000000 : 8=FIX.4.2|9=147|35=F|34=107|49=OPS_CANDIDATE_9_2308|52=20231118-03:45:38.000|56=DTL|11=00105|41=00060|54=1|55=BAC|58=Order Cancel Request|60=20231118-03:45:38.155|10=084|
20231118-03:45:38.000000000 : 8=FIX.4.2|9=175|35=D|34=108|49=OPS_CANDIDATE_9_2308|52=20231118-03:45:38.000|56=DTL|11=00106|21=3|38=429|40=2|44=165.59091993465|54=1|55=BAC|58=New Order Single|59=0|60=20231118-03:45:38.155|10=161|
20231118-03:45:38.000000000 : 8=FIX.4.2|9=147|35=F|34=109|49=OPS_CANDIDATE_9_2308|52=20231118-03:45:38.000|56=DTL|11=00107|41=00016|54=1|55=BAC|58=Order Cancel Request|60=20231118-03:45:38.156|10=090|
20231118-03:45:38.000000000 : 8=FIX.4.2|9=177|35=D|34=110|49=OPS_CANDIDATE_9_2308|52=20231118-03:45:38.000|56=DTL|11=00108|21=3|38=438|40=2|44=127.553828776785|54=1|55=AAPL|58=New Order Single|59=0|60=20231118-03:45:38.156|10=048|
20231118-03:45:38.000000000 : 8=FIX.4.2|9=148|35=F|34=111|49=OPS_CANDIDATE_9_2308|52=20231118-03:45:38.000|56=DTL|11=00109|41=00065|54=1|55=AAPL|58=Order Cancel Request|60=20231118-03:45:38.157|10=179|
20231118-03:45:38.000000000 : 8=FIX.4.2|9=176|35=D|34=112|49=OPS_CANDIDATE_9_2308|52=20231118-03:45:38.000|56=DTL|11=00110|21=3|38=478|40=2|44=196.540121019521|54=1|55=BAC|58=New Order Single|59=0|60=20231118-03:45:38.158|10=182|
20231118-03:45:38.000000000 : 8=FIX.4.2|9=177|35=D|34=113|49=OPS_CANDIDATE_9_2308|52=20231118-03:45:38.000|56=DTL|11=00111|21=3|38=219|40=2|44=175.239441617007|54=1|55=AAPL|58=New Order Single|59=0|60=20231118-03:45:38.158|10=020|
20231118-03:45:38.000000000 : 8=FIX.4.2|9=148|35=F|34=114|49=OPS_CANDIDATE_9_2308|52=20231118-03:45:38.000|56=DTL|11=00112|41=00087|54=1|55=MSFT|58=Order Cancel Request|60=20231118-03:45:38.159|10=210|
20231118-03:45:38.000000000 : 8=FIX.4.2|9=177|35=D|34=115|49=OPS_CANDIDATE_9_2308|52=20231118-03:45:38.000|56=DTL|11=00113|21=3|38=104|40=2|44=196.883893629388|54=1|55=MSFT|58=New Order Single|59=0|60=20231118-03:45:38.159|10=080|
20231118-03:45:38.000000000 : 8=FIX.4.2|9=147|35=F|34=116|49=OPS_CANDIDATE_9_2308|52=20231118-03:45:38.000|56=DTL|11=00114|41=00072|54=1|55=BAC|58=Order Cancel Request|60=20231118-03:45:38.160|10=083|
20231118-03:45:38.000000000 : 8=FIX.4.2|9=176|35=D|34=117|49=OPS_CANDIDATE_9_2308|52=20231118-03:45:38.000|56=DTL|11=00115|21=3|38=404|40=2|44=163.147510298764|54=1|55=BAC|58=New Order Single|59=0|60=20231118-03:45:38.160|10=191|
20231118-03:45:38.000000000 : 8=FIX.4.2|9=175|35=D|34=118|49=OPS_CANDIDATE_9_2308|52=20231118-03:45:38.000|56=DTL|11=00116|21=3|38=426|40=2|44=113.49143809129|54=1|55=BAC|58=New Order Single|59=0|60=20231118-03:45:38.160|10=139|
20231118-03:45:38.000000000 : 8=FIX.4.2|9=147|35=F|34=119|49=OPS_CANDIDATE_9_2308|52=20231118-03:45:38.000|56=DTL|11=00117|41=00110|54=1|55=BAC|58=Order Cancel Request|60=20231118-03:45:38.161|10=083|
20231118-03:45:38.000000000 : 8=FIX.4.2|9=177|35=D|34=120|49=OPS_CANDIDATE_9_2308|52=20231118-03:45:38.000|56=DTL|11=00118|21=3|38=122|40=2|44=159.742744621819|54=1|55=MSFT|58=New Order Single|59=0|60=20231118-03:45:38.161|10=053|
20231118-03:45:38.000000000 : 8=FIX.4.2|9=147|35=F|34=121|49=OPS_CANDIDATE_9_2308|52=20231118-03:45:38.000|56=DTL|11=00119|41=00115|54=1|55=BAC|58=Order Cancel Request|60=20231118-03:45:38.161|10=083|
20231118-03:45:38.000000000 : 8=FIX.4.2|9=177|35=D|34=122|49=OPS_CANDIDATE_9_2308|52=20231118-03:45:38.000|56=DTL|11=00120|21=3|38=350|40=2|44=122.752641133416|54=1|55=MSFT|58=New Order Single|59=0|60=20231118-03:45:38.161|10=029|
20231118-03:45:38.000000000 : 8=FIX.4.2|9=148|35=F|34=123|49=OPS_CANDIDATE_9_2308|52=20231118-03:45:38.000|56=DTL|11=00121|41=00033|54=1|55=AAPL|58=Order Cancel Request|60=20231118-03:45:38.162|10=167|
20231118-03:45:38.000000000 : 8=FIX.4.2|9=177|35=D|34=124|49=OPS_CANDIDATE_9_2308|52=20231118-03:45:38.000|56=DTL|11=00122|21=3|38=346|40=2|44=165.791930322774|54=1|55=MSFT|58=New Order Single|59=0|60=20231118-03:45:38.162|10=057|
20231118-03:45:38.000000000 : 8=FIX.4.2|9=148|35=F|34=125|49=OPS_CANDIDATE_9_2308|52=20231118-03:45:38.000|56=DTL|11=00123|41=00064|54=1|55=AAPL|58=Order Cancel Request|60=20231118-03:45:38.162|10=175|
20231118-03:45:38.000000000 : 8=FIX.4.2|9=176|35=D|34=126|49=OPS_CANDIDATE_9_2308|52=20231118-03:45:38.000|56=DTL|11=00124|21=3|38=172|40=2|44=136.190600621174|54=1|55=BAC|58=New Order Single|59=0|60=20231118-03:45:38.162|10=178|
20231118-03:45:38.000000000 : 8=FIX.4.2|9=177|35=D|34=127|49=OPS_CANDIDATE_9_2308|52=20231118-03:45:38.000|56=DTL|11=00125|21=3|38=250|40=2|44=153.830636968026|54=1|55=MSFT|58=New Order Single|59=0|60=20231118-03:45:38.163|10=058|
20231118-03:45:38.000000000 : 8=FIX.4.2|9=176|35=D|34=128|49=OPS_CANDIDATE_9_2308|52=20231118-03:45:38.000|56=DTL|11=00126|21=3|38=201|40=2|44=151.915303947457|54=1|55=BAC|58=New Order Single|59=0|60=20231118-03:45:38.163|10=193|
20231118-03:45:38.000000000 : 8=FIX.4.2|9=176|35=D|34=129|49=OPS_CANDIDATE_9_2308|52=20231118-03:45:38.000|56=DTL|11=00127|21=3|38=244|40=2|44=169.232918055214|54=1|55=BAC|58=New Order Single|59=0|60=20231118-03:45:38.163|10=196|
20231118-03:45:38.000000000 : 8=FIX.4.2|9=177|35=D|34=130|49=OPS_CANDIDATE_9_2308|52=20231118-03:45:38.000|56=DTL|11=00128|21=3|38=187|40=2|44=191.349548978605|54=1|55=AAPL|58=New Order Single|59=0|60=20231118-03:45:38.163|10=049|
20231118-03:45:38.000000000 : 8=FIX.4.2|9=177|35=D|34=131|49=OPS_CANDIDATE_9_2308|52=20231118-03:45:38.000|56=DTL|11=00129|21=3|38=137|40=2|44=179.643744841186|54=1|55=MSFT|58=New Order Single|59=0|60=20231118-03:45:38.164|10=069|
20231118-03:45:38.000000000 : 8=FIX.4.2|9=177|35=D|34=132|49=OPS_CANDIDATE_9_2308|52=20231118-03:45:38.000|56=DTL|11=00130|21=3|38=115|40=2|44=105.800285193459|54=1|55=AAPL|58=New Order Single|59=0|60=20231118-03:45:38.164|10=017|
20231118-03:45:38.000000000 : 8=FIX.4.2|9=147|35=F|34=133|49=OPS_CANDIDATE_9_2308|52=20231118-03:45:38.000|56=DTL|11=00131|41=00010|54=1|55=BAC|58=Order Cancel Request|60=20231118-03:45:38.164|10=077|
20231118-03:45:38.000000000 : 8=FIX.4.2|9=177|35=D|34=134|49=OPS_CANDIDATE_9_2308|52=20231118-03:45:38.000|56=DTL|11=00132|21=3|38=359|40=2|44=119.437257188475|54=1|55=MSFT|58=New Order Single|59=0|60=20231118-03:45:38.165|10=072|
20231118-03:45:38.000000000 : 8=FIX.4.2|9=176|35=D|34=135|49=OPS_CANDIDATE_9_2308|52=20231118-03:45:38.000|56=DTL|11=00133|21=3|38=362|40=2|44=174.32848115614|54=1|55=MSFT|58=New Order Single|59=0|60=20231118-03:45:38.165|10=002|
20231118-03:45:38.000000000 : 8=FIX.4.2|9=177|35=D|34=136|49=OPS_CANDIDATE_9_2308|52=20231118-03:45:38.000|56=DTL|11=00134|21=3|38=109|40=2|44=175.217013419399|54=1|55=MSFT|58=New Order Single|59=0|60=20231118-03:45:38.165|10=059|
20231118-03:45:38.000000000 : 8=FIX.4.2|9=148|35=F|34=137|49=OPS_CANDIDATE_9_2308|52=20231118-03:45:38.000|56=DTL|11=00135|41=00080|54=1|55=AAPL|58=Order Cancel Request|60=20231118-03:45:38.165|10=182|
20231118-03:45:38.000000000 : 8=FIX.4.2|9=177|35=D|34=138|49=OPS_CANDIDATE_9_2308|52=20231118-03:45:38.000|56=DTL|11=00136|21=3|38=244|40=2|44=127.221752750681|54=1|55=MSFT|58=New Order Single|59=0|60=20231118-03:45:38.166|10=058|
20231118-03:45:38.000000000 : 8=FIX.4.2|9=177|35=D|34=139|49=OPS_CANDIDATE_9_2308|52=20231118-03:45:38.000|56=DTL|11=00137|21=3|38=107|40=2|44=179.757225650189|54=1|55=AAPL|58=New Order Single|59=0|60=20231118-03:45:38.166|10=048|
20231118-03:45:38.000000000 : 8=FIX.4.2|9=176|35=D|34=140|49=OPS_CANDIDATE_9_2308|52=20231118-03:45:38.000|56=DTL|11=00138|21=3|38=157|40=2|44=125.692870767563|54=1|55=BAC|58=New Order Single|59=0|60=20231118-03:45:38.166|10=213|
20231118-03:45:38.000000000 : 8=FIX.4.2|9=148|35=F|34=141|49=OPS_CANDIDATE_9_2308|52=20231118-03:45:38.000|56=DTL|11=00139|41=00004|54=1|55=MSFT|58=Order Cancel Request|60=20231118-03:45:38.166|10=206|
20231118-03:45:38.000000000 : 8=FIX.4.2|9=176|35=D|34=142|49=OPS_CANDIDATE_9_2308|52=20231118-03:45:38.000|56=DTL|11=00140|21=3|38=194|40=2|44=144.436534115709|54=1|55=BAC|58=New Order Single|59=0|60=20231118-03:45:38.167|10=193|
20231118-03:45:38.000000000 : 8=FIX.4.2|9=148|35=F|34=143|49=OPS_CANDIDATE_9_2308|52=20231118-03:45:38.000|56=DTL|11=00141|41=00004|54=1|55=MSFT|58=Order Cancel Request|60=20231118-03:45:38.167|10=202|
20231118-03:45:38.000000000 : 8=FIX.4.2|9=177|35=D|34=144|49=OPS_CANDIDATE_9_2308|52=20231118-03:45:38.000|56=DTL|11=00142|21=3|38=317|40=2|44=169.298629023351|54=1|55=MSFT|58=New Order Single|59=0|60=20231118-03:45:38.167|10=064|
20231118-03:45:38.000000000 : 8=FIX.4.2|9=148|35=F|34=145|49=OPS_CANDIDATE_9_2308|52=20231118-03:45:38.000|56=DTL|11=00143|41=00104|54=1|55=MSFT|58=Order Cancel Request|60=20231118-03:45:38.167|10=207|
20231118-03:45:38.000000000 : 8=FIX.4.2|9=176|35=D|34=146|49=OPS_CANDIDATE_9_2308|52=20231118-03:45:38.000|56=DTL|11=00144|21=3|38=148|40=2|44=188.635684199505|54=1|55=BAC|58=New Order Single|59=0|60=20231118-03:45:38.168|10=222|
20231118-03:45:38.000000000 : 8=FIX.4.2|9=177|35=D|34=147|49=OPS_CANDIDATE_9_2308|52=20231118-03:45:38.000|56=DTL|11=00145|21=3|38=388|40=2|44=161.530920993735|54=1|55=MSFT|58=New Order Single|59=0|60=20231118-03:45:38.168|10=076|
20231118-03:45:38.000000000 : 8=FIX.4.2|9=147|35=F|34=148|49=OPS_CANDIDATE_9_2308|52=20231118-03:45:38.000|56=DTL|11=00146|41=00059|54=1|55=BAC|58=Order Cancel Request|60=20231118-03:45:38.168|10=106|
20231118-03:45:38.000000000 : 8=FIX.4.2|9=176|35=D|34=149|49=OPS_CANDIDATE_9_2308|52=20231118-03:45:38.000|56=DTL|11=00147|21=3|38=130|40=2|44=163.339647854556|54=1|55=BAC|58=New Order Single|59=0|60=20231118-03:45:38.168|10=216|
20231118-03:45:38.000000000 : 8=FIX.4.2|9=176|35=D|34=150|49=OPS_CANDIDATE_9_2308|52=20231118-03:45:38.000|56=DTL|11=00148|21=3|38=444|40=2|44=110.493683713815|54=1|55=BAC|58=New Order Single|59=0|60=20231118-03:45:38.169|10=203|
20231118-03:45:38.000000000 : 8=FIX.4.2|9=177|35=D|34=151|49=OPS_CANDIDATE_9_2308|52=20231118-03:45:38.000|56=DTL|11=00149|21=3|38=455|40=2|44=109.566797276543|54=1|55=MSFT|58=New Order Single|59=0|60=20231118-03:45:38.169|10=085|
20231118-03:45:38.000000000 : 8=FIX.4.2|9=148|35=F|34=152|49=OPS_CANDIDATE_9_2308|52=20231118-03:45:38.000|56=DTL|11=00150|41=00134|54=1|55=MSFT|58=Order Cancel Request|60=20231118-03:45:38.169|10=208|
20231118-03:45:38.000000000 : 8=FIX.4.2|9=177|35=D|34=153|49=OPS_CANDIDATE_9_2308|52=20231118-03:45:38.000|56=DTL|11=00151|21=3|38=480|40=2|44=153.554746224126|54=1|55=AAPL|58=New Order Single|59=0|60=20231118-03:45:38.170|10=022|
20231118-03:45:38.000000000 : 8=FIX.4.2|9=147|35=F|34=154|49=OPS_CANDIDATE_9_2308|52=20231118-03:45:38.000|56=DTL|11=00152|41=00066|54=1|55=BAC|58=Order Cancel Request|60=20231118-03:45:38.170|10=091|
20231118-03:45:38.000000000 : 8=FIX.4.2|9=176|35=D|34=155|49=OPS_CANDIDATE_9_2308|52=20231118-03:45:38.000|56=DTL|11=00153|21=3|38=140|40=2|44=100.944887757291|54=1|55=BAC|58=New Order Single|59=0|60=20231118-03:45:38.170|10=201|
20231118-03:45:38.000000000 : 8=FIX.4.2|9=148|35=F|34=156|49=OPS_CANDIDATE_9_2308|52=20231118-03:45:38.000|56=DTL|11=00154|41=00129|54=1|55=MSFT|58=Order Cancel Request|60=20231118-03:45:38.170|10=212|
20231118-03:45:38.000000000 : 8=FIX.4.2|9=177|35=D|34=157|49=OPS_CANDIDATE_9_2308|52=20231118-03:45:38.000|56=DTL|11=00155|21=3|38=390|40=2|44=156.429832079306|54=1|55=AAPL|58=New Order Single|59=0|60=20231118-03:45:38.171|10=039|
20231118-03:45:38.000000000 : 8=FIX.4.2|9=148|35=F|34=158|49=OPS_CANDIDATE_9_2308|52=20231118-03:45:38.000|56=DTL|11=00156|41=00081|54=1|55=MSFT|58=Order Cancel Request|60=20231118-03:45:38.171|10=214|
20231118-03:45:38.000000000 : 8=FIX.4.2|9=176|35=D|34=159|49=OPS_CANDIDATE_9_2308|52=20231118-03:45:38.000|56=DTL|11=00157|21=3|38=135|40=2|44=138.216117397492|54=1|55=BAC|58=New Order Single|59=0|60=20231118-03:45:38.172|10=207|
20231118-03:45:38.000000000 : 8=FIX.4.2|9=177|35=D|34=160|49=OPS_CANDIDATE_9_2308|52=20231118-03:45:38.000|56=DTL|11=00158|21=3|38=206|40=2|44=154.824896930558|54=1|55=AAPL|58=New Order Single|59=0|60=20231118-03:45:38.174|10=047|
20231118-03:45:38.000000000 : 8=FIX.4.2|9=176|35=D|34=161|49=OPS_CANDIDATE_9_2308|52=20231118-03:45:38.000|56=DTL|11=00159|21=3|38=266|40=2|44=158.509751147773|54=1|55=BAC|58=New Order Single|59=0|60=20231118-03:45:38.175|10=216|
20231118-03:45:38.000000000 : 8=FIX.4.2|9=148|35=F|34=162|49=OPS_CANDIDATE_9_2308|52=20231118-03:45:38.000|56=DTL|11=00160|41=00131|54=1|55=MSFT|58=Order Cancel Request|60=20231118-03:45:38.176|10=205|
20231118-03:45:38.000000000 : 8=FIX.4.2|9=176|35=D|34=163|49=OPS_CANDIDATE_9_2308|52=20231118-03:45:38.000|56=DTL|11=00161|21=3|38=299|40=2|44=188.974097370293|54=1|55=BAC|58=New Order Single|59=0|60=20231118-03:45:38.176|10=225|
20231118-03:45:38.000000000 : 8=FIX.4.2|9=148|35=F|34=164|49=OPS_CANDIDATE_9_2308|52=20231118-03:45:38.000|56=DTL|11=00162|41=00038|54=1|55=MSFT|58=Order Cancel Request|60=20231118-03:45:38.177|10=216|
20231118-03:45:38.000000000 : 8=FIX.4.2|9=177|35=D|34=165|49=OPS_CANDIDATE_9_2308|52=20231118-03:45:38.000|56=DTL|11=00163|21=3|38=108|40=2|44=113.220382262003|54=1|55=MSFT|58=New Order Single|59=0|60=20231118-03:45:38.177|10=038|
20231118-03:45:38.000000000 : 8=FIX.4.2|9=176|35=D|34=166|49=OPS_CANDIDATE_9_2308|52=20231118-03:45:38.000|56=DTL|11=00164|21=3|38=370|40=2|44=116.492779703567|54=1|55=BAC|58=New Order Single|59=0|60=20231118-03:45:38.178|10=220|
20231118-03:45:38.000000000 : 8=FIX.4.2|9=148|35=F|34=167|49=OPS_CANDIDATE_9_2308|52=20231118-03:45:38.000|56=DTL|11=00165|41=00098|54=1|55=MSFT|58=Order Cancel Request|60=20231118-03:45:38.178|10=229|
20231118-03:45:38.000000000 : 8=FIX.4.2|9=177|35=D|34=168|49=OPS_CANDIDATE_9_2308|52=20231118-03:45:38.000|56=DTL|11=00166|21=3|38=412|40=2|44=149.735737071691|54=1|55=MSFT|58=New Order Single|59=0|60=20231118-03:45:38.179|10=079|
20231118-03:45:38.000000000 : 8=FIX.4.2|9=147|35=F|34=169|49=OPS_CANDIDATE_9_2308|52=20231118-03:45:38.000|56=DTL|11=00167|41=00153|54=1|55=BAC|58=Order Cancel Request|60=20231118-03:45:38.179|10=109|
20231118-03:45:38.000000000 : 8=FIX.4.2|9=177|35=D|34=170|49=OPS_CANDIDATE_9_2308|52=20231118-03:45:38.000|56=DTL|11=00168|21=3|38=281|40=2|44=181.723975319001|54=1|55=MSFT|58=New Order Single|59=0|60=20231118-03:45:38.179|10=065|
20231118-03:45:38.000000000 : 8=FIX.4.2|9=177|35=D|34=171|49=OPS_CANDIDATE_9_2308|52=20231118-03:45:38.000|56=DTL|11=00169|21=3|38=312|40=2|44=141.886705745716|54=1|55=MSFT|58=New Order Single|59=0|60=20231118-03:45:38.180|10=067|
20231118-03:45:38.000000000 : 8=FIX.4.2|9=148|35=F|34=172|49=OPS_CANDIDATE_9_2308|52=20231118-03:45:38.000|56=DTL|11=00170|41=00117|54=1|55=MSFT|58=Order Cancel Request|60=20231118-03:45:38.180|10=206|
20231118-03:45:38.000000000 : 8=FIX.4.2|9=175|35=D|34=173|49=OPS_CANDIDATE_9_2308|52=20231118-03:45:38.000|56=DTL|11=00171|21=3|38=103|40=2|44=104.97813118628|54=1|55=BAC|58=New Order Single|59=0|60=20231118-03:45:38.180|10=139|
20231118-03:45:38.000000000 : 8=FIX.4.2|9=177|35=D|34=174|49=OPS_CANDIDATE_9_2308|52=20231118-03:45:38.000|56=DTL|11=00172|21=3|38=371|40=2|44=167.420500919079|54=1|55=MSFT|58=New Order Single|59=0|60=20231118-03:45:38.181|10=060|
20231118-03:45:38.000000000 : 8=FIX.4.2|9=147|35=F|34=175|49=OPS_CANDIDATE_9_2308|52=20231118-03:45:38.000|56=DTL|11=00173|41=00078|54=1|55=BAC|58=Order Cancel Request|60=20231118-03:45:38.181|10=102|
20231118-03:45:38.000000000 : 8=FIX.4.2|9=177|35=D|34=176|49=OPS_CANDIDATE_9_2308|52=20231118-03:45:38.000|56=DTL|11=00174|21=3|38=190|40=2|44=118.661651085863|54=1|55=MSFT|58=New Order Single|59=0|60=20231118-03:45:38.181|10=068|
20231118-03:45:38.000000000 : 8=FIX.4.2|9=147|35=F|34=177|49=OPS_CANDIDATE_9_2308|52=20231118-03:45:38.000|56=DTL|11=00175|41=00124|54=1|55=BAC|58=Order Cancel Request|60=20231118-03:45:38.182|10=099|
20231118-03:45:38.000000000 : 8=FIX.4.2|9=177|35=D|34=178|49=OPS_CANDIDATE_9_2308|52=20231118-03:45:38.000|56=DTL|11=00176|21=3|38=450|40=2|44=177.622235656753|54=1|55=AAPL|58=New Order Single|59=0|60=20231118-03:45:38.182|10=046|
20231118-03:45:38.000000000 : 8=FIX.4.2|9=147|35=F|34=179|49=OPS_CANDIDATE_9_2308|52=20231118-03:45:38.000|56=DTL|11=00177|41=00164|54=1|55=BAC|58=Order Cancel Request|60=20231118-03:45:38.182|10=107|
20231118-03:45:38.000000000 : 8=FIX.4.2|9=177|35=D|34=180|49=OPS_CANDIDATE_9_2308|52=20231118-03:45:38.000|56=DTL|11=00178|21=3|38=492|40=2|44=130.743514010432|54=1|55=MSFT|58=New Order Single|59=0|60=20231118-03:45:38.182|10=046|
20231118-03:45:38.000000000 : 8=FIX.4.2|9=148|35=F|34=181|49=OPS_CANDIDATE_9_2308|52=20231118-03:45:38.000|56=DTL|11=00179|41=00111|54=1|55=AAPL|58=Order Cancel Request|60=20231118-03:45:38.183|10=184|
20231118-03:45:38.000000000 : 8=FIX.4.2|9=175|35=D|34=182|49=OPS_CANDIDATE_9_2308|52=20231118-03:45:38.000|56=DTL|11=00180|21=3|38=415|40=2|44=196.7983363431|54=1|55=AAPL|58=New Order Single|59=0|60=20231118-03:45:38.183|10=192|
20231118-03:45:38.000000000 : 8=FIX.4.2|9=147|35=F|34=183|49=OPS_CANDIDATE_9_2308|52=20231118-03:45:38.000|56=DTL|11=00181|41=00066|54=1|55=BAC|58=Order Cancel Request|60=20231118-03:45:38.183|10=099|
20231118-03:45:38.000000000 : 8=FIX.4.2|9=177|35=D|34=184|49=OPS_CANDIDATE_9_2308|52=20231118-03:45:38.000|56=DTL|11=00182|21=3|38=377|40=2|44=188.088395085737|54=1|55=AAPL|58=New Order Single|59=0|60=20231118-03:45:38.184|10=063|
20231118-03:45:38.000000000 : 8=FIX.4.2|9=177|35=D|34=185|49=OPS_CANDIDATE_9_2308|52=20231118-03:45:38.000|56=DTL|11=00183|21=3|38=236|40=2|44=132.817161456753|54=1|55=MSFT|58=New Order Single|59=0|60=20231118-03:45:38.184|10=067|
20231118-03:45:38.000000000 : 8=FIX.4.2|9=177|35=D|34=186|49=OPS_CANDIDATE_9_2308|52=20231118-03:45:38.000|56=DTL|11=00184|21=3|38=440|40=2|44=172.225504230673|54=1|55=AAPL|58=New Order Single|59=0|60=20231118-03:45:38.184|10=027|
20231118-03:45:38.000000000 : 8=FIX.4.2|9=176|35=D|34=187|49=OPS_CANDIDATE_9_2308|52=20231118-03:45:38.000|56=DTL|11=00185|21=3|38=429|40=2|44=102.115913356164|54=1|55=BAC|58=New Order Single|59=0|60=20231118-03:45:38.184|10=202|
20231118-03:45:38.000000000 : 8=FIX.4.2|9=176|35=D|34=188|49=OPS_CANDIDATE_9_2308|52=20231118-03:45:38.000|56=DTL|11=00186|21=3|38=155|40=2|44=130.866574735968|54=1|55=BAC|58=New Order Single|59=0|60=20231118-03:45:38.185|10=231|
20231118-03:45:38.000000000 : 8=FIX.4.2|9=176|35=D|34=189|49=OPS_CANDIDATE_9_2308|52=20231118-03:45:38.000|56=DTL|11=00187|21=3|38=221|40=2|44=127.659076826959|54=1|55=BAC|58=New Order Single|59=0|60=20231118-03:45:38.185|10=231|
20231118-03:45:38.000000000 : 8=FIX.4.2|9=177|35=D|34=190|49=OPS_CANDIDATE_9_2308|52=20231118-03:45:38.000|56=DTL|11=00188|21=3|38=369|40=2|44=159.487470597524|54=1|55=MSFT|58=New Order Single|59=0|60=20231118-03:45:38.185|10=093|
20231118-03:45:38.000000000 : 8=FIX.4.2|9=177|35=D|34=191|49=OPS_CANDIDATE_9_2308|52=20231118-03:45:38.000|56=DTL|11=00189|21=3|38=385|40=2|44=117.270215607348|54=1|55=AAPL|58=New Order Single|59=0|60=20231118-03:45:38.186|10=043|
20231118-03:45:38.000000000 : 8=FIX.4.2|9=148|35=F|34=192|49=OPS_CANDIDATE_9_2308|52=20231118-03:45:38.000|56=DTL|11=00190|41=00002|54=1|55=MSFT|58=Order Cancel Request|60=20231118-03:45:38.186|10=209|
20231118-03:45:38.000000000 : 8=FIX.4.2|9=177|35=D|34=193|49=OPS_CANDIDATE_9_2308|52=20231118-03:45:38.000|56=DTL|11=00191|21=3|38=415|40=2|44=173.223030514108|54=1|55=MSFT|58=New Order Single|59=0|60=20231118-03:45:38.186|10=046|
20231118-03:45:38.000000000 : 8=FIX.4.2|9=147|35=F|34=194|49=OPS_CANDIDATE_9_2308|52=20231118-03:45:38.000|56=DTL|11=00192|41=00153|54=1|55=BAC|58=Order Cancel Request|60=20231118-03:45:38.186|10=103|
20231118-03:45:38.000000000 : 8=FIX.4.2|9=177|35=D|34=195|49=OPS_CANDIDATE_9_2308|52=20231118-03:45:38.000|56=DTL|11=00193|21=3|38=323|40=2|44=109.644351828013|54=1|55=AAPL|58=New Order Single|59=0|60=20231118-03:45:38.187|10=036|
20231118-03:45:38.000000000 : 8=FIX.4.2|9=177|35=D|34=196|49=OPS_CANDIDATE_9_2308|52=20231118-03:45:38.000|56=DTL|11=00194|21=3|38=185|40=2|44=133.000597711581|54=1|55=MSFT|58=New Order Single|59=0|60=20231118-03:45:38.187|10=068|
20231118-03:45:38.000000000 : 8=FIX.4.2|9=177|35=D|34=197|49=OPS_CANDIDATE_9_2308|52=20231118-03:45:38.000|56=DTL|11=00195|21=3|38=481|40=2|44=150.415395569141|54=1|55=AAPL|58=New Order Single|59=0|60=20231118-03:45:38.187|10=049|
20231118-03:45:38.000000000 : 8=FIX.4.2|9=147|35=F|34=198|49=OPS_CANDIDATE_9_2308|52=20231118-03:45:38.000|56=DTL|11=00196|41=00102|54=1|55=BAC|58=Order Cancel Request|60=20231118-03:45:38.188|10=107|
20231118-03:45:38.000000000 : 8=FIX.4.2|9=176|35=D|34=199|49=OPS_CANDIDATE_9_2308|52=20231118-03:45:38.000|56=DTL|11=00197|21=3|38=438|40=2|44=104.760367540157|54=1|55=BAC|58=New Order Single|59=0|60=20231118-03:45:38.188|10=220|
20231118-03:45:38.000000000 : 8=FIX.4.2|9=176|35=D|34=200|49=OPS_CANDIDATE_9_2308|52=20231118-03:45:38.000|56=DTL|11=00198|21=3|38=471|40=2|44=104.428585522714|54=1|55=BAC|58=New Order Single|59=0|60=20231118-03:45:38.188|10=203|
20231118-03:45:38.000000000 : 8=FIX.4.2|9=147|35=F|34=201|49=OPS_CANDIDATE_9_2308|52=20231118-03:45:38.000|56=DTL|11=00199|41=00035|54=1|55=BAC|58=Order Cancel Request|60=20231118-03:45:38.189|10=101|
20231118-03:45:38.000000000 : 8=FIX.4.2|9=177|35=D|34=202|49=OPS_CANDIDATE_9_2308|52=20231118-03:45:38.000|56=DTL|11=00200|21=3|38=334|40=2|44=143.902495975685|54=1|55=AAPL|58=New Order Single|59=0|60=20231118-03:45:38.189|10=040|
20231118-03:45:38.000000000 : 8=FIX.4.2|9=177|35=D|34=203|49=OPS_CANDIDATE_9_2308|52=20231118-03:45:38.000|56=DTL|11=00201|21=3|38=281|40=2|44=156.882269879362|54=1|55=AAPL|58=New Order Single|59=0|60=20231118-03:45:38.189|10=048|
20231118-03:45:38.000000000 : 8=FIX.4.2|9=147|35=F|34=204|49=OPS_CANDIDATE_9_2308|52=20231118-03:45:38.000|56=DTL|11=00202|41=00025|54=1|55=BAC|58=Order Cancel Request|60=20231118-03:45:38.189|10=088|
20231118-03:45:38.000000000 : 8=FIX.4.2|9=177|35=D|34=205|49=OPS_CANDIDATE_9_2308|52=20231118-03:45:38.000|56=DTL|11=00203|21=3|38=487|40=2|44=179.510456577418|54=1|55=AAPL|58=New Order Single|59=0|60=20231118-03:45:38.190|10=040|
20231118-03:45:38.000000000 : 8=FIX.4.2|9=148|35=F|34=206|49=OPS_CANDIDATE_9_2308|52=20231118-03:45:38.000|56=DTL|11=00204|41=00203|54=1|55=AAPL|58=Order Cancel Request|60=20231118-03:45:38.190|10=171|
20231118-03:45:38.000000000 : 8=FIX.4.2|9=177|35=D|34=207|49=OPS_CANDIDATE_9_2308|52=20231118-03:45:38.000|56=DTL|11=00205|21=3|38=341|40=2|44=195.549253253054|54=1|55=AAPL|58=New Order Single|59=0|60=20231118-03:45:38.190|10=025|
20231118-03:45:38.000000000 : 8=FIX.4.2|9=148|35=F|34=208|49=OPS_CANDIDATE_9_2308|52=20231118-03:45:38.000|56=DTL|11=00206|41=00122|54=1|55=MSFT|58=Order Cancel Request|60=20231118-03:45:38.190|10=203|
20231118-03:45:38.000000000 : 8=FIX.4.2|9=176|35=D|34=209|49=OPS_CANDIDATE_9_2308|52=20231118-03:45:38.000|56=DTL|11=00207|21=3|38=191|40=2|44=141.276885512361|54=1|55=BAC|58=New Order Single|59=0|60=20231118-03:45:38.191|10=198|
20231118-03:45:38.000000000 : 8=FIX.4.2|9=176|35=D|34=210|49=OPS_CANDIDATE_9_2308|52=20231118-03:45:38.000|56=DTL|11=00208|21=3|38=383|40=2|44=149.25319028355|54=1|55=AAPL|58=New Order Single|59=0|60=20231118-03:45:38.191|10=231|
20231118-03:45:38.000000000 : 8=FIX.4.2|9=177|35=D|34=211|49=OPS_CANDIDATE_9_2308|52=20231118-03:45:38.000|56=DTL|11=00209|21=3|38=188|40=2|44=164.212653088286|54=1|55=AAPL|58=New Order Single|59=0|60=20231118-03:45:38.191|10=034|
20231118-03:45:38.000000000 : 8=FIX.4.2|9=177|35=D|34=212|49=OPS_CANDIDATE_9_2308|52=20231118-03:45:38.000|56=DTL|11=00210|21=3|38=134|40=2|44=146.981717912555|54=1|55=MSFT|58=New Order Single|59=0|60=20231118-03:45:38.191|10=055|
20231118-03:45:38.000000000 : 8=FIX.4.2|9=148|35=F|34=213|49=OPS_CANDIDATE_9_2308|52=20231118-03:45:38.000|56=DTL|11=00211|41=00093|54=1|55=MSFT|58=Order Cancel Request|60=20231118-03:45:38.192|10=204|
20231118-03:45:38.000000000 : 8=FIX.4.2|9=177|35=D|34=214|49=OPS_CANDIDATE_9_2308|52=20231118-03:45:38.000|56=DTL|11=00212|21=3|38=154|40=2|44=154.440103552325|54=1|55=MSFT|58=New Order Single|59=0|60=20231118-03:45:38.192|10=035|
20231118-03:45:38.000000000 : 8=FIX.4.2|9=148|35=F|34=215|49=OPS_CANDIDATE_9_2308|52=20231118-03:45:38.000|56=DTL|11=00213|41=00047|54=1|55=MSFT|58=Order Cancel Request|60=20231118-03:45:38.192|10=207|
20231118-03:45:38.000000000 : 8=FIX.4.2|9=177|35=D|34=216|49=OPS_CANDIDATE_9_2308|52=20231118-03:45:38.000|56=DTL|11=00214|21=3|38=293|40=2|44=145.713366681756|54=1|55=AAPL|58=New Order Single|59=0|60=20231118-03:45:38.192|10=040|
20231118-03:45:38.000000000 : 8=FIX.4.2|9=147|35=F|34=217|49=OPS_CANDIDATE_9_2308|52=20231118-03:45:38.000|56=DTL|11=00215|41=00198|54=1|55=BAC|58=Order Cancel Request|60=20231118-03:45:38.193|10=102|
20231118-03:45:38.000000000 : 8=FIX.4.2|9=177|35=D|34=218|49=OPS_CANDIDATE_9_2308|52=20231118-03:45:38.000|56=DTL|11=00216|21=3|38=299|40=2|44=182.034490157766|54=1|55=AAPL|58=New Order Single|59=0|60=20231118-03:45:38.193|10=045|
20231118-03:45:38.000000000 : 8=FIX.4.2|9=148|35=F|34=219|49=OPS_CANDIDATE_9_2308|52=20231118-03:45:38.000|56=DTL|11=00217|41=00041|54=1|55=MSFT|58=Order Cancel Request|60=20231118-03:45:38.193|10=210|
20231118-03:45:38.000000000 : 8=FIX.4.2|9=176|35=D|34=220|49=OPS_CANDIDATE_9_2308|52=20231118-03:45:38.000|56=DTL|11=00218|21=3|38=428|40=2|44=136.099367107028|54=1|55=BAC|58=New Order Single|59=0|60=20231118-03:45:38.194|10=201|
20231118-03:45:38.000000000 : 8=FIX.4.2|9=148|35=F|34=221|49=OPS_CANDIDATE_9_2308|52=20231118-03:45:38.000|56=DTL|11=00219|41=00129|54=1|55=MSFT|58=Order Cancel Request|60=20231118-03:45:38.195|10=214|
20231118-03:45:38.000000000 : 8=FIX.4.2|9=177|35=D|34=222|49=OPS_CANDIDATE_9_2308|52=20231118-03:45:38.000|56=DTL|11=00220|21=3|38=227|40=2|44=103.738645093848|54=1|55=MSFT|58=New Order Single|59=0|60=20231118-03:45:38.195|10=062|
20231118-03:45:38.000000000 : 8=FIX.4.2|9=148|35=F|34=223|49=OPS_CANDIDATE_9_2308|52=20231118-03:45:38.000|56=DTL|11=00221|41=00081|54=1|55=MSFT|58=Order Cancel Request|60=20231118-03:45:38.196|10=207|
20231118-03:45:38.000000000 : 8=FIX.4.2|9=177|35=D|34=224|49=OPS_CANDIDATE_9_2308|52=20231118-03:45:38.000|56=DTL|11=00222|21=3|38=186|40=2|44=147.255393928824|54=1|55=MSFT|58=New Order Single|59=0|60=20231118-03:45:38.196|10=074|
20231118-03:45:38.000000000 : 8=FIX.4.2|9=176|35=D|34=225|49=OPS_CANDIDATE_9_2308|52=20231118-03:45:38.000|56=DTL|11=00223|21=3|38=192|40=2|44=113.043708649566|54=1|55=BAC|58=New Order Single|59=0|60=20231118-03:45:38.197|10=204|
20231118-03:45:38.000000000 : 8=FIX.4.2|9=147|35=F|34=226|49=OPS_CANDIDATE_9_2308|52=20231118-03:45:38.000|56=DTL|11=00224|41=00157|54=1|55=BAC|58=Order Cancel Request|60=20231118-03:45:38.197|10=101|
20231118-03:45:38.000000000 : 8=FIX.4.2|9=176|35=D|34=227|49=OPS_CANDIDATE_9_2308|52=20231118-03:45:38.000|56=DTL|11=00225|21=3|38=306|40=2|44=161.062892490378|54=1|55=BAC|58=New Order Single|59=0|60=20231118-03:45:38.197|10=208|
20231118-03:45:38.000000000 : 8=FIX.4.2|9=148|35=F|34=228|49=OPS_CANDIDATE_9_2308|52=20231118-03:45:38.000|56=DTL|11=00226|41=00163|54=1|55=MSFT|58=Order Cancel Request|60=20231118-03:45:38.198|10=220|
20231118-03:45:38.000000000 : 8=FIX.4.2|9=175|35=D|34=229|49=OPS_CANDIDATE_9_2308|52=20231118-03:45:38.000|56=DTL|11=00227|21=3|38=139|40=2|44=104.12439409698|54=1|55=BAC|58=New Order Single|59=0|60=20231118-03:45:38.199|10=163|
20231118-03:45:38.000000000 : 8=FIX.4.2|9=177|35=D|34=230|49=OPS_CANDIDATE_9_2308|52=20231118-03:45:38.000|56=DTL|11=00228|21=3|38=401|40=2|44=114.902499708512|54=1|55=AAPL|58=New Order Single|59=0|60=20231118-03:45:38.199|10=032|
20231118-03:45:38.000000000 : 8=FIX.4.2|9=177|35=D|34=231|49=OPS_CANDIDATE_9_2308|52=20231118-03:45:38.000|56=DTL|11=00229|21=3|38=249|40=2|44=142.815285038669|54=1|55=MSFT|58=New Order Single|59=0|60=20231118-03:45:38.200|10=061|
20231118-03:45:38.000000000 : 8=FIX.4.2|9=148|35=F|34=232|49=OPS_CANDIDATE_9_2308|52=20231118-03:45:38.000|56=DTL|11=00230|41=00193|54=1|55=AAPL|58=Order Cancel Request|60=20231118-03:45:38.200|10=169|
20231118-03:45:38.000000000 : 8=FIX.4.2|9=177|35=D|34=233|49=OPS_CANDIDATE_9_2308|52=20231118-03:45:38.000|56=DTL|11=00231|21=3|38=389|40=2|44=175.326331567342|54=1|55=MSFT|58=New Order Single|59=0|60=20231118-03:45:38.200|10=051|
20231118-03:45:38.000000000 : 8=FIX.4.2|9=148|35=F|34=234|49=OPS_CANDIDATE_9_2308|52=20231118-03:45:38.000|56=DTL|11=00232|41=00216|54=1|55=AAPL|58=Order Cancel Request|60=20231118-03:45:38.201|10=170|
20231118-03:45:38.000000000 : 8=FIX.4.2|9=177|35=D|34=235|49=OPS_CANDIDATE_9_2308|52=20231118-03:45:38.000|56=DTL|11=00233|21=3|38=394|40=2|44=149.541447858416|54=1|55=MSFT|58=New Order Single|59=0|60=20231118-03:45:38.201|10=065|
20231118-03:45:38.000000000 : 8=FIX.4.2|9=148|35=F|34=236|49=OPS_CANDIDATE_9_2308|52=20231118-03:45:38.000|56=DTL|11=00234|41=00232|54=1|55=MSFT|58=Order Cancel Request|60=20231118-03:45:38.201|10=200|
20231118-03:45:38.000000000 : 8=FIX.4.2|9=176|35=D|34=237|49=OPS_CANDIDATE_9_2308|52=20231118-03:45:38.000|56=DTL|11=00235|21=3|38=358|40=2|44=120.458235565814|54=1|55=BAC|58=New Order Single|59=0|60=20231118-03:45:38.202|10=197|
20231118-03:45:38.000000000 : 8=FIX.4.2|9=175|35=D|34=238|49=OPS_CANDIDATE_9_2308|52=20231118-03:45:38.000|56=DTL|11=00236|21=3|38=367|40=2|44=191.2220128564|54=1|55=AAPL|58=New Order Single|59=0|60=20231118-03:45:38.202|10=174|
20231118-03:45:38.000000000 : 8=FIX.4.2|9=147|35=F|34=239|49=OPS_CANDIDATE_9_2308|52=20231118-03:45:38.000|56=DTL|11=00237|41=00227|54=1|55=BAC|58=Order Cancel Request|60=20231118-03:45:38.202|10=094|
20231118-03:45:38.000000000 : 8=FIX.4.2|9=176|35=D|34=240|49=OPS_CANDIDATE_9_2308|52=20231118-03:45:38.000|56=DTL|11=00238|21=3|38=362|40=2|44=157.356874616957|54=1|55=BAC|58=New Order Single|59=0|60=20231118-03:45:38.202|10=210|
20231118-03:45:38.000000000 : 8=FIX.4.2|9=177|35=D|34=241|49=OPS_CANDIDATE_9_2308|52=20231118-03:45:38.000|56=DTL|11=00239|21=3|38=203|40=2|44=131.968024192574|54=1|55=MSFT|58=New Order Single|59=0|60=20231118-03:45:38.203|10=050|
20231118-03:45:38.000000000 : 8=FIX.4.2|9=175|35=D|34=242|49=OPS_CANDIDATE_9_2308|52=20231118-03:45:38.000|56=DTL|11=00240|21=3|38=378|40=2|44=108.02808222395|54=1|55=BAC|58=New Order Single|59=0|60=20231118-03:45:38.203|10=134|
20231118-03:45:38.000000000 : 8=FIX.4.2|9=176|35=D|34=243|49=OPS_CANDIDATE_9_2308|52=20231118-03:45:38.000|56=DTL|11=00241|21=3|38=382|40=2|44=112.020204588269|54=1|55=BAC|58=New Order Single|59=0|60=20231118-03:45:38.203|10=180|
20231118-03:45:38.000000000 : 8=FIX.4.2|9=175|35=D|34=244|49=OPS_CANDIDATE_9_2308|52=20231118-03:45:38.000|56=DTL|11=00242|21=3|38=214|40=2|44=176.59325520752|54=1|55=BAC|58=New Order Single|59=0|60=20231118-03:45:38.204|10=137|
20231118-03:45:38.000000000 : 8=FIX.4.2|9=177|35=D|34=245|49=OPS_CANDIDATE_9_2308|52=20231118-03:45:38.000|56=DTL|11=00243|21=3|38=356|40=2|44=137.495807460391|54=1|55=MSFT|58=New Order Single|59=0|60=20231118-03:45:38.204|10=064|
20231118-03:45:38.000000000 : 8=FIX.4.2|9=147|35=F|34=246|49=OPS_CANDIDATE_9_2308|52=20231118-03:45:38.000|56=DTL|11=00244|41=00186|54=1|55=BAC|58=Order Cancel Request|60=20231118-03:45:38.204|10=096|
20231118-03:45:38.000000000 : 8=FIX.4.2|9=176|35=D|34=247|49=OPS_CANDIDATE_9_2308|52=20231118-03:45:38.000|56=DTL|11=00245|21=3|38=166|40=2|44=118.598613978497|54=1|55=BAC|58=New Order Single|59=0|60=20231118-03:45:38.205|10=226|
20231118-03:45:38.000000000 : 8=FIX.4.2|9=148|35=F|34=248|49=OPS_CANDIDATE_9_2308|52=20231118-03:45:38.000|56=DTL|11=00246|41=00243|54=1|55=MSFT|58=Order Cancel Request|60=20231118-03:45:38.207|10=214|
20231118-03:45:38.000000000 : 8=FIX.4.2|9=177|35=D|34=249|49=OPS_CANDIDATE_9_2308|52=20231118-03:45:38.000|56=DTL|11=00247|21=3|38=266|40=2|44=129.910289660337|54=1|55=MSFT|58=New Order Single|59=0|60=20231118-03:45:38.208|10=075|
20231118-03:45:38.000000000 : 8=FIX.4.2|9=176|35=D|34=250|49=OPS_CANDIDATE_9_2308|52=20231118-03:45:38.000|56=DTL|11=00248|21=3|38=413|40=2|44=172.017104334207|54=1|55=BAC|58=New Order Single|59=0|60=20231118-03:45:38.208|10=177|
20231118-03:45:38.000000000 : 8=FIX.4.2|9=175|35=D|34=251|49=OPS_CANDIDATE_9_2308|52=20231118-03:45:38.000|56=DTL|11=00249|21=3|38=420|40=2|44=138.09912911713|54=1|55=BAC|58=New Order Single|59=0|60=20231118-03:45:38.209|10=142|
20231118-03:45:38.000000000 : 8=FIX.4.2|9=147|35=F|34=252|49=OPS_CANDIDATE_9_2308|52=20231118-03:45:38.000|56=DTL|11=00250|41=00242|54=1|55=BAC|58=Order Cancel Request|60=20231118-03:45:38.210|10=080|
20231118-03:45:38.000000000 : 8=FIX.4.2|9=176|35=D|34=253|49=OPS_CANDIDATE_9_2308|52=20231118-03:45:38.000|56=DTL|11=00251|21=3|38=348|40=2|44=153.087377193992|54=1|55=BAC|58=New Order Single|59=0|60=20231118-03:45:38.210|10=206|
20231118-03:45:38.000000000 : 8=FIX.4.2|9=148|35=F|34=254|49=OPS_CANDIDATE_9_2308|52=20231118-03:45:38.000|56=DTL|11=00252|41=00056|54=1|55=MSFT|58=Order Cancel Request|60=20231118-03:45:38.211|10=205|
20231118-03:45:38.000000000 : 8=FIX.4.2|9=177|35=D|34=255|49=OPS_CANDIDATE_9_2308|52=20231118-03:45:38.000|56=DTL|11=00253|21=3|38=236|40=2|44=180.161312453175|54=1|55=AAPL|58=New Order Single|59=0|60=20231118-03:45:38.211|10=014|
20231118-03:45:38.000000000 : 8=FIX.4.2|9=176|35=D|34=256|49=OPS_CANDIDATE_9_2308|52=20231118-03:45:38.000|56=DTL|11=00254|21=3|38=307|40=2|44=126.466125571771|54=1|55=BAC|58=New Order Single|59=0|60=20231118-03:45:38.212|10=196|
20231118-03:45:38.000000000 : 8=FIX.4.2|9=147|35=F|34=257|49=OPS_CANDIDATE_9_2308|52=20231118-03:45:38.000|56=DTL|11=00255|41=00186|54=1|55=BAC|58=Order Cancel Request|60=20231118-03:45:38.213|10=100|
20231118-03:45:38.000000000 : 8=FIX.4.2|9=176|35=D|34=258|49=OPS_CANDIDATE_9_2308|52=20231118-03:45:38.000|56=DTL|11=00256|21=3|38=189|40=2|44=165.149066374221|54=1|55=BAC|58=New Order Single|59=0|60=20231118-03:45:38.213|10=205|
20231118-03:45:38.000000000 : 8=FIX.4.2|9=176|35=D|34=259|49=OPS_CANDIDATE_9_2308|52=20231118-03:45:38.000|56=DTL|11=00257|21=3|38=388|40=2|44=106.240792972518|54=1|55=BAC|58=New Order Single|59=0|60=20231118-03:45:38.213|10=214|
20231118-03:45:38.000000000 : 8=FIX.4.2|9=176|35=D|34=260|49=OPS_CANDIDATE_9_2308|52=20231118-03:45:38.000|56=DTL|11=00258|21=3|38=307|40=2|44=170.361727688282|54=1|55=BAC|58=New Order Single|59=0|60=20231118-03:45:38.214|10=204|
20231118-03:45:38.000000000 : 8=FIX.4.2|9=147|35=F|34=261|49=OPS_CANDIDATE_9_2308|52=20231118-03:45:38.000|56=DTL|11=00259|41=00066|54=1|55=BAC|58=Order Cancel Request|60=20231118-03:45:38.214|10=097|
20231118-03:45:38.000000000 : 8=FIX.4.2|9=177|35=D|34=262|49=OPS_CANDIDATE_9_2308|52=20231118-03:45:38.000|56=DTL|11=00260|21=3|38=142|40=2|44=180.405010164714|54=1|55=AAPL|58=New Order Single|59=0|60=20231118-03:45:38.214|10=003|
20231118-03:45:38.000000000 : 8=FIX.4.2|9=148|35=F|34=263|49=OPS_CANDIDATE_9_2308|52=20231118-03:45:38.000|56=DTL|11=00261|41=00105|54=1|55=MSFT|58=Order Cancel Request|60=20231118-03:45:38.214|10=203|
20231118-03:45:38.000000000 : 8=FIX.4.2|9=177|35=D|34=264|49=OPS_CANDIDATE_9_2308|52=20231118-03:45:38.000|56=DTL|11=00262|21=3|38=369|40=2|44=198.738371334967|54=1|55=AAPL|58=New Order Single|59=0|60=20231118-03:45:38.215|10=056|
20231118-03:45:38.000000000 : 8=FIX.4.2|9=177|35=D|34=265|49=OPS_CANDIDATE_9_2308|52=20231118-03:45:38.000|56=DTL|11=00263|21=3|38=357|40=2|44=145.234121378712|54=1|55=AAPL|58=New Order Single|59=0|60=20231118-03:45:38.215|10=027|
20231118-03:45:38.000000000 : 8=FIX.4.2|9=148|35=F|34=266|49=OPS_CANDIDATE_9_2308|52=20231118-03:45:38.000|56=DTL|11=00264|41=00103|54=1|55=MSFT|58=Order Cancel Request|60=20231118-03:45:38.215|10=208|
20231118-03:45:38.000000000 : 8=FIX.4.2|9=177|35=D|34=267|49=OPS_CANDIDATE_9_2308|52=20231118-03:45:38.000|56=DTL|11=00265|21=3|38=375|40=2|44=187.250071674863|54=1|55=AAPL|58=New Order Single|59=0|60=20231118-03:45:38.215|10=045|
20231118-03:45:38.000000000 : 8=FIX.4.2|9=148|35=F|34=268|49=OPS_CANDIDATE_9_2308|52=20231118-03:45:38.000|56=DTL|11=00266|41=00049|54=1|55=AAPL|58=Order Cancel Request|60=20231118-03:45:38.216|10=194|
20231118-03:45:38.000000000 : 8=FIX.4.2|9=176|35=D|34=269|49=OPS_CANDIDATE_9_2308|52=20231118-03:45:38.000|56=DTL|11=00267|21=3|38=464|40=2|44=128.08614485553|54=1|55=AAPL|58=New Order Single|59=0|60=20231118-03:45:38.216|10=251|
20231118-03:45:38.000000000 : 8=FIX.4.2|9=147|35=F|34=270|49=OPS_CANDIDATE_9_2308|52=20231118-03:45:38.000|56=DTL|11=00268|41=00126|54=1|55=BAC|58=Order Cancel Request|60=20231118-03:45:38.216|10=096|
20231118-03:45:38.000000000 : 8=FIX.4.2|9=177|35=D|34=271|49=OPS_CANDIDATE_9_2308|52=20231118-03:45:38.000|56=DTL|11=00269|21=3|38=393|40=2|44=188.381119819478|54=1|55=AAPL|58=New Order Single|59=0|60=20231118-03:45:38.216|10=057|
20231118-03:45:38.000000000 : 8=FIX.4.2|9=148|35=F|34=272|49=OPS_CANDIDATE_9_2308|52=20231118-03:45:38.000|56=DTL|11=00270|41=00079|54=1|55=MSFT|58=Order Cancel Request|60=20231118-03:45:38.217|10=216|
20231118-03:45:38.000000000 : 8=FIX.4.2|9=177|35=D|34=273|49=OPS_CANDIDATE_9_2308|52=20231118-03:45:38.000|56=DTL|11=00271|21=3|38=290|40=2|44=172.856128753865|54=1|55=MSFT|58=New Order Single|59=0|60=20231118-03:45:38.217|10=074|
20231118-03:45:38.000000000 : 8=FIX.4.2|9=148|35=F|34=274|49=OPS_CANDIDATE_9_2308|52=20231118-03:45:38.000|56=DTL|11=00272|41=00174|54=1|55=MSFT|58=Order Cancel Request|60=20231118-03:45:38.217|10=216|
20231118-03:45:38.000000000 : 8=FIX.4.2|9=176|35=D|34=275|49=OPS_CANDIDATE_9_2308|52=20231118-03:45:38.000|56=DTL|11=00273|21=3|38=242|40=2|44=139.828994686697|54=1|55=BAC|58=New Order Single|59=0|60=20231118-03:45:38.218|10=236|
20231118-03:45:38.000000000 : 8=FIX.4.2|9=177|35=D|34=276|49=OPS_CANDIDATE_9_2308|52=20231118-03:45:38.000|56=DTL|11=00274|21=3|38=484|40=2|44=134.861413737355|54=1|55=MSFT|58=New Order Single|59=0|60=20231118-03:45:38.218|10=073|
20231118-03:45:38.000000000 : 8=FIX.4.2|9=147|35=F|34=277|49=OPS_CANDIDATE_9_2308|52=20231118-03:45:38.000|56=DTL|11=00275|41=00076|54=1|55=BAC|58=Order Cancel Request|60=20231118-03:45:38.218|10=107|
20231118-03:45:38.000000000 : 8=FIX.4.2|9=176|35=D|34=278|49=OPS_CANDIDATE_9_2308|52=20231118-03:45:38.000|56=DTL|11=00276|21=3|38=470|40=2|44=153.92917451969|54=1|55=MSFT|58=New Order Single|59=0|60=20231118-03:45:38.218|10=033|
20231118-03:45:38.000000000 : 8=FIX.4.2|9=176|35=D|34=279|49=OPS_CANDIDATE_9_2308|52=20231118-03:45:38.000|56=DTL|11=00277|21=3|38=324|40=2|44=185.722695597406|54=1|55=BAC|58=New Order Single|59=0|60=20231118-03:45:38.219|10=227|
20231118-03:45:38.000000000 : 8=FIX.4.2|9=147|35=F|34=280|49=OPS_CANDIDATE_9_2308|52=20231118-03:45:38.000|56=DTL|11=00278|41=00187|54=1|55=BAC|58=Order Cancel Request|60=20231118-03:45:38.219|10=108|
20231118-03:45:38.000000000 : 8=FIX.4.2|9=176|35=D|34=281|49=OPS_CANDIDATE_9_2308|52=20231118-03:45:38.000|56=DTL|11=00279|21=3|38=316|40=2|44=134.537018008221|54=1|55=BAC|58=New Order Single|59=0|60=20231118-03:45:38.219|10=192|
20231118-03:45:38.000000000 : 8=FIX.4.2|9=148|35=F|34=282|49=OPS_CANDIDATE_9_2308|52=20231118-03:45:38.000|56=DTL|11=00280|41=00000|54=1|55=MSFT|58=Order Cancel Request|60=20231118-03:45:38.219|10=204|
20231118-03:45:38.000000000 : 8=FIX.4.2|9=177|35=D|34=283|49=OPS_CANDIDATE_9_2308|52=20231118-03:45:38.000|56=DTL|11=00281|21=3|38=431|40=2|44=141.700529988409|54=1|55=AAPL|58=New Order Single|59=0|60=20231118-03:45:38.220|10=032|
20231118-03:45:38.000000000 : 8=FIX.4.2|9=177|35=D|34=284|49=OPS_CANDIDATE_9_2308|52=20231118-03:45:38.000|56=DTL|11=00282|21=3|38=183|40=2|44=132.046771322832|54=1|55=MSFT|58=New Order Single|59=0|60=20231118-03:45:38.220|10=050|
20231118-03:45:38.000000000 : 8=FIX.4.2|9=177|35=D|34=285|49=OPS_CANDIDATE_9_2308|52=20231118-03:45:38.000|56=DTL|11=00283|21=3|38=395|40=2|44=162.610802316806|54=1|55=MSFT|58=New Order Single|59=0|60=20231118-03:45:38.221|10=057|
20231118-03:45:38.000000000 : 8=FIX.4.2|9=147|35=F|34=286|49=OPS_CANDIDATE_9_2308|52=20231118-03:45:38.000|56=DTL|11=00284|41=00062|54=1|55=BAC|58=Order Cancel Request|60=20231118-03:45:38.221|10=096|
20231118-03:45:38.000000000 : 8=FIX.4.2|9=176|35=D|34=287|49=OPS_CANDIDATE_9_2308|52=20231118-03:45:38.000|56=DTL|11=00285|21=3|38=434|40=2|44=111.705782587699|54=1|55=BAC|58=New Order Single|59=0|60=20231118-03:45:38.221|10=220|
20231118-03:45:38.000000000 : 8=FIX.4.2|9=177|35=D|34=288|49=OPS_CANDIDATE_9_2308|52=20231118-03:45:38.000|56=DTL|11=00286|21=3|38=260|40=2|44=163.705746765945|54=1|55=MSFT|58=New Order Single|59=0|60=20231118-03:45:38.222|10=080|
20231118-03:45:38.000000000 : 8=FIX.4.2|9=176|35=D|34=289|49=OPS_CANDIDATE_9_2308|52=20231118-03:45:38.000|56=DTL|11=00287|21=3|38=241|40=2|44=171.346118190485|54=1|55=BAC|58=New Order Single|59=0|60=20231118-03:45:38.222|10=204|
20231118-03:45:38.000000000 : 8=FIX.4.2|9=177|35=D|34=290|49=OPS_CANDIDATE_9_2308|52=20231118-03:45:38.000|56=DTL|11=00288|21=3|38=195|40=2|44=111.787552685543|54=1|55=AAPL|58=New Order Single|59=0|60=20231118-03:45:38.222|10=047|
20231118-03:45:38.000000000 : 8=FIX.4.2|9=148|35=F|34=291|49=OPS_CANDIDATE_9_2308|52=20231118-03:45:38.000|56=DTL|11=00289|41=00181|54=1|55=MSFT|58=Order Cancel Request|60=20231118-03:45:38.222|10=217|
20231118-03:45:38.000000000 : 8=FIX.4.2|9=176|35=D|34=292|49=OPS_CANDIDATE_9_2308|52=20231118-03:45:38.000|56=DTL|11=00290|21=3|38=370|40=2|44=105.964609790529|54=1|55=BAC|58=New Order Single|59=0|60=20231118-03:45:38.223|10=209|
20231118-03:45:38.000000000 : 8=FIX.4.2|9=177|35=D|34=293|49=OPS_CANDIDATE_9_2308|52=20231118-03:45:38.000|56=DTL|11=00291|21=3|38=211|40=2|44=117.430903171518|54=1|55=MSFT|58=New Order Single|59=0|60=20231118-03:45:38.223|10=045|
20231118-03:45:38.000000000 : 8=FIX.4.2|9=177|35=D|34=294|49=OPS_CANDIDATE_9_2308|52=20231118-03:45:38.000|56=DTL|11=00292|21=3|38=318|40=2|44=121.616627352059|54=1|55=AAPL|58=New Order Single|59=0|60=20231118-03:45:38.223|10=032|
20231118-03:45:38.000000000 : 8=FIX.4.2|9=147|35=F|34=295|49=OPS_CANDIDATE_9_2308|52=20231118-03:45:38.000|56=DTL|11=00293|41=00157|54=1|55=BAC|58=Order Cancel Request|60=20231118-03:45:38.224|10=104|
20231118-03:45:38.000000000 : 8=FIX.4.2|9=176|35=D|34=296|49=OPS_CANDIDATE_9_2308|52=20231118-03:45:38.000|56=DTL|11=00294|21=3|38=264|40=2|44=145.759549403759|54=1|55=BAC|58=New Order Single|59=0|60=20231118-03:45:38.224|10=225|
20231118-03:45:38.000000000 : 8=FIX.4.2|9=147|35=F|34=297|49=OPS_CANDIDATE_9_2308|52=20231118-03:45:38.000|56=DTL|11=00295|41=00238|54=1|55=BAC|58=Order Cancel Request|60=20231118-03:45:38.224|10=108|
20231118-03:45:38.000000000 : 8=FIX.4.2|9=177|35=D|34=298|49=OPS_CANDIDATE_9_2308|52=20231118-03:45:38.000|56=DTL|11=00296|21=3|38=209|40=2|44=166.600331926623|54=1|55=AAPL|58=New Order Single|59=0|60=20231118-03:45:38.225|10=039|
20231118-03:45:38.000000000 : 8=FIX.4.2|9=148|35=F|34=299|49=OPS_CANDIDATE_9_2308|52=20231118-03:45:38.000|56=DTL|11=00297|41=00001|54=1|55=MSFT|58=Order Cancel Request|60=20231118-03:45:38.225|10=218|
20231118-03:45:38.000000000 : 8=FIX.4.2|9=177|35=D|34=300|49=OPS_CANDIDATE_9_2308|52=20231118-03:45:38.000|56=DTL|11=00298|21=3|38=421|40=2|44=133.151143730562|54=1|55=AAPL|58=New Order Single|59=0|60=20231118-03:45:38.225|10=012|
20231118-03:45:38.000000000 : 8=FIX.4.2|9=148|35=F|34=301|49=OPS_CANDIDATE_9_2308|52=20231118-03:45:38.000|56=DTL|11=00299|41=00175|54=1|55=MSFT|58=Order Cancel Request|60=20231118-03:45:38.225|10=216|
20231118-03:45:38.000000000 : 8=FIX.4.2|9=177|35=D|34=302|49=OPS_CANDIDATE_9_2308|52=20231118-03:45:38.000|56=DTL|11=00300|21=3|38=139|40=2|44=174.182335744782|54=1|55=MSFT|58=New Order Single|59=0|60=20231118-03:45:38.226|10=054|
20231118-03:45:38.000000000 : 8=FIX.4.2|9=176|35=D|34=303|49=OPS_CANDIDATE_9_2308|52=20231118-03:45:38.000|56=DTL|11=00301|21=3|38=200|40=2|44=192.369136352332|54=1|55=BAC|58=New Order Single|59=0|60=20231118-03:45:38.226|10=176|
20231118-03:45:38.000000000 : 8=FIX.4.2|9=148|35=F|34=304|49=OPS_CANDIDATE_9_2308|52=20231118-03:45:38.000|56=DTL|11=00302|41=00293|54=1|55=MSFT|58=Order Cancel Request|60=20231118-03:45:38.226|10=206|
20231118-03:45:38.000000000 : 8=FIX.4.2|9=177|35=D|34=305|49=OPS_CANDIDATE_9_2308|52=20231118-03:45:38.000|56=DTL|11=00303|21=3|38=500|40=2|44=152.001389833491|54=1|55=MSFT|58=New Order Single|59=0|60=20231118-03:45:38.226|10=043|
20231118-03:45:38.000000000 : 8=FIX.4.2|9=176|35=D|34=306|49=OPS_CANDIDATE_9_2308|52=20231118-03:45:38.000|56=DTL|11=00304|21=3|38=118|40=2|44=154.400264406253|54=1|55=BAC|58=New Order Single|59=0|60=20231118-03:45:38.227|10=179|
20231118-03:45:38.000000000 : 8=FIX.4.2|9=147|35=F|34=307|49=OPS_CANDIDATE_9_2308|52=20231118-03:45:38.000|56=DTL|11=00305|41=00287|54=1|55=BAC|58=Order Cancel Request|60=20231118-03:45:38.227|10=099|
20231118-03:45:38.000000000 : 8=FIX.4.2|9=176|35=D|34=308|49=OPS_CANDIDATE_9_2308|52=20231118-03:45:38.000|56=DTL|11=00306|21=3|38=459|40=2|44=160.360824299371|54=1|55=BAC|58=New Order Single|59=0|60=20231118-03:45:38.227|10=206|
20231118-03:45:38.000000000 : 8=FIX.4.2|9=177|35=D|34=309|49=OPS_CANDIDATE_9_2308|52=20231118-03:45:38.000|56=DTL|11=00307|21=3|38=374|40=2|44=180.245404284043|54=1|55=MSFT|58=New Order Single|59=0|60=20231118-03:45:38.228|10=054|
20231118-03:45:38.000000000 : 8=FIX.4.2|9=148|35=F|34=310|49=OPS_CANDIDATE_9_2308|52=20231118-03:45:38.000|56=DTL|11=00308|41=00032|54=1|55=MSFT|58=Order Cancel Request|60=20231118-03:45:38.228|10=202|
20231118-03:45:38.000000000 : 8=FIX.4.2|9=177|35=D|34=311|49=OPS_CANDIDATE_9_2308|52=20231118-03:45:38.000|56=DTL|11=00309|21=3|38=246|40=2|44=164.155289264118|54=1|55=MSFT|58=New Order Single|59=0|60=20231118-03:45:38.228|10=061|
20231118-03:45:38.000000000 : 8=FIX.4.2|9=148|35=F|34=312|49=OPS_CANDIDATE_9_2308|52=20231118-03:45:38.000|56=DTL|11=00310|41=00154|54=1|55=MSFT|58=Order Cancel Request|60=20231118-03:45:38.228|10=202|
20231118-03:45:38.000000000 : 8=FIX.4.2|9=177|35=D|34=313|49=OPS_CANDIDATE_9_2308|52=20231118-03:45:38.000|56=DTL|11=00311|21=3|38=224|40=2|44=113.668392529824|54=1|55=AAPL|58=New Order Single|59=0|60=20231118-03:45:38.229|10=031|
20231118-03:45:38.000000000 : 8=FIX.4.2|9=176|35=D|34=314|49=OPS_CANDIDATE_9_2308|52=20231118-03:45:38.000|56=DTL|11=00312|21=3|38=318|40=2|44=123.166991191277|54=1|55=BAC|58=New Order Single|59=0|60=20231118-03:45:38.229|10=200|
20231118-03:45:38.000000000 : 8=FIX.4.2|9=148|35=F|34=315|49=OPS_CANDIDATE_9_2308|52=20231118-03:45:38.000|56=DTL|11=00313|41=00054|54=1|55=MSFT|58=Order Cancel Request|60=20231118-03:45:38.229|10=208|
20231118-03:45:38.000000000 : 8=FIX.4.2|9=177|35=D|34=316|49=OPS_CANDIDATE_9_2308|52=20231118-03:45:38.000|56=DTL|11=00314|21=3|38=404|40=2|44=143.790591758905|54=1|55=MSFT|58=New Order Single|59=0|60=20231118-03:45:38.229|10=069|
20231118-03:45:38.000000000 : 8=FIX.4.2|9=176|35=D|34=317|49=OPS_CANDIDATE_9_2308|52=20231118-03:45:38.000|56=DTL|11=00315|21=3|38=274|40=2|44=163.961510652442|54=1|55=BAC|58=New Order Single|59=0|60=20231118-03:45:38.230|10=189|
20231118-03:45:38.000000000 : 8=FIX.4.2|9=147|35=F|34=318|49=OPS_CANDIDATE_9_2308|52=20231118-03:45:38.000|56=DTL|11=00316|41=00106|54=1|55=BAC|58=Order Cancel Request|60=20231118-03:45:38.230|10=087|
20231118-03:45:38.000000000 : 8=FIX.4.2|9=177|35=D|34=319|49=OPS_CANDIDATE_9_2308|52=20231118-03:45:38.000|56=DTL|11=00317|21=3|38=208|40=2|44=110.989196454361|54=1|55=MSFT|58=New Order Single|59=0|60=20231118-03:45:38.230|10=063|
20231118-03:45:38.000000000 : 8=FIX.4.2|9=148|35=F|34=320|49=OPS_CANDIDATE_9_2308|52=20231118-03:45:38.000|56=DTL|11=00318|41=00100|54=1|55=AAPL|58=Order Cancel Request|60=20231118-03:45:38.230|10=165|
20231118-03:45:38.000000000 : 8=FIX.4.2|9=176|35=D|34=321|49=OPS_CANDIDATE_9_2308|52=20231118-03:45:38.000|56=DTL|11=00319|21=3|38=207|40=2|44=178.408962122534|54=1|55=BAC|58=New Order Single|59=0|60=20231118-03:45:38.231|10=192|
20231118-03:45:38.000000000 : 8=FIX.4.2|9=148|35=F|34=322|49=OPS_CANDIDATE_9_2308|52=20231118-03:45:38.000|56=DTL|11=00320|41=00219|54=1|55=MSFT|58=Order Cancel Request|60=20231118-03:45:38.231|10=200|
20231118-03:45:38.000000000 : 8=FIX.4.2|9=176|35=D|34=323|49=OPS_CANDIDATE_9_2308|52=20231118-03:45:38.000|56=DTL|11=00321|21=3|38=247|40=2|44=182.89758092227|54=1|55=MSFT|58=New Order Single|59=0|60=20231118-03:45:38.231|10=011|
20231118-03:45:38.000000000 : 8=FIX.4.2|9=177|35=D|34=324|49=OPS_CANDIDATE_9_2308|52=20231118-03:45:38.000|56=DTL|11=00322|21=3|38=132|40=2|44=183.736606837771|54=1|55=AAPL|58=New Order Single|59=0|60=20231118-03:45:38.232|10=031|
20231118-03:45:38.000000000 : 8=FIX.4.2|9=176|35=D|34=325|49=OPS_CANDIDATE_9_2308|52=20231118-03:45:38.000|56=DTL|11=00323|21=3|38=169|40=2|44=134.820108009662|54=1|55=BAC|58=New Order Single|59=0|60=20231118-03:45:38.232|10=187|
20231118-03:45:38.000000000 : 8=FIX.4.2|9=177|35=D|34=326|49=OPS_CANDIDATE_9_2308|52=20231118-03:45:38.000|56=DTL|11=00324|21=3|38=132|40=2|44=136.279944175168|54=1|55=AAPL|58=New Order Single|59=0|60=20231118-03:45:38.232|10=035|
20231118-03:45:38.000000000 : 8=FIX.4.2|9=147|35=F|34=327|49=OPS_CANDIDATE_9_2308|52=20231118-03:45:38.000|56=DTL|11=00325|41=00315|54=1|55=BAC|58=Order Cancel Request|60=20231118-03:45:38.232|10=091|
20231118-03:45:38.000000000 : 8=FIX.4.2|9=176|35=D|34=328|49=OPS_CANDIDATE_9_2308|52=20231118-03:45:38.000|56=DTL|11=00326|21=3|38=387|40=2|44=173.957039090376|54=1|55=BAC|58=New Order Single|59=0|60=20231118-03:45:38.233|10=215|
20231118-03:45:38.000000000 : 8=FIX.4.2|9=177|35=D|34=329|49=OPS_CANDIDATE_9_2308|52=20231118-03:45:38.000|56=DTL|11=00327|21=3|38=275|40=2|44=198.450308490483|54=1|55=MSFT|58=New Order Single|59=0|60=20231118-03:45:38.233|10=071|
20231118-03:45:38.000000000 : 8=FIX.4.2|9=176|35=D|34=330|49=OPS_CANDIDATE_9_2308|52=20231118-03:45:38.000|56=DTL|11=00328|21=3|38=109|40=2|44=104.231188360931|54=1|55=BAC|58=New Order Single|59=0|60=20231118-03:45:38.233|10=183|
20231118-03:45:38.000000000 : 8=FIX.4.2|9=177|35=D|34=331|49=OPS_CANDIDATE_9_2308|52=20231118-03:45:38.000|56=DTL|11=00329|21=3|38=387|40=2|44=194.699911008208|54=1|55=AAPL|58=New Order Single|59=0|60=20231118-03:45:38.233|10=043|
20231118-03:45:38.000000000 : 8=FIX.4.2|9=148|35=F|34=332|49=OPS_CANDIDATE_9_2308|52=20231118-03:45:38.000|56=DTL|11=00330|41=00293|54=1|55=MSFT|58=Order Cancel Request|60=20231118-03:45:38.234|10=207|
20231118-03:45:38.000000000 : 8=FIX.4.2|9=177|35=D|34=333|49=OPS_CANDIDATE_9_2308|52=20231118-03:45:38.000|56=DTL|11=00331|21=3|38=462|40=2|44=197.547025054505|54=1|55=AAPL|58=New Order Single|59=0|60=20231118-03:45:38.234|10=025|
20231118-03:45:38.000000000 : 8=FIX.4.2|9=177|35=D|34=334|49=OPS_CANDIDATE_9_2308|52=20231118-03:45:38.000|56=DTL|11=00332|21=3|38=245|40=2|44=112.610357982541|54=1|55=MSFT|58=New Order Single|59=0|60=20231118-03:45:38.235|10=051|
20231118-03:45:38.000000000 : 8=FIX.4.2|9=148|35=F|34=335|49=OPS_CANDIDATE_9_2308|52=20231118-03:45:38.000|56=DTL|11=00333|41=00219|54=1|55=MSFT|58=Order Cancel Request|60=20231118-03:45:38.235|10=212|
20231118-03:45:38.000000000 : 8=FIX.4.2|9=177|35=D|34=336|49=OPS_CANDIDATE_9_2308|52=20231118-03:45:38.000|56=DTL|11=00334|21=3|38=252|40=2|44=141.186903694338|54=1|55=AAPL|58=New Order Single|59=0|60=20231118-03:45:38.236|10=037|
20231118-03:45:38.000000000 : 8=FIX.4.2|9=177|35=D|34=337|49=OPS_CANDIDATE_9_2308|52=20231118-03:45:38.000|56=DTL|11=00335|21=3|38=416|40=2|44=134.242555885414|54=1|55=AAPL|58=New Order Single|59=0|60=20231118-03:45:38.236|10=036|
20231118-03:45:38.000000000 : 8=FIX.4.2|9=176|35=D|34=338|49=OPS_CANDIDATE_9_2308|52=20231118-03:45:38.000|56=DTL|11=00336|21=3|38=342|40=2|44=147.79082203172|54=1|55=MSFT|58=New Order Single|59=0|60=20231118-03:45:38.237|10=008|
20231118-03:45:38.000000000 : 8=FIX.4.2|9=147|35=F|34=339|49=OPS_CANDIDATE_9_2308|52=20231118-03:45:38.000|56=DTL|11=00337|41=00185|54=1|55=BAC|58=Order Cancel Request|60=20231118-03:45:38.237|10=107|
20231118-03:45:38.000000000 : 8=FIX.4.2|9=177|35=D|34=340|49=OPS_CANDIDATE_9_2308|52=20231118-03:45:38.000|56=DTL|11=00338|21=3|38=250|40=2|44=148.347162072366|54=1|55=AAPL|58=New Order Single|59=0|60=20231118-03:45:38.238|10=030|
20231118-03:45:38.000000000 : 8=FIX.4.2|9=176|35=D|34=341|49=OPS_CANDIDATE_9_2308|52=20231118-03:45:38.000|56=DTL|11=00339|21=3|38=404|40=2|44=103.988536001568|54=1|55=BAC|58=New Order Single|59=0|60=20231118-03:45:38.238|10=203|
20231118-03:45:38.000000000 : 8=FIX.4.2|9=148|35=F|34=342|49=OPS_CANDIDATE_9_2308|52=20231118-03:45:38.000|56=DTL|11=00340|41=00068|54=1|55=MSFT|58=Order Cancel Request|60=20231118-03:45:38.239|10=214|
20231118-03:45:38.000000000 : 8=FIX.4.2|9=177|35=D|34=343|49=OPS_CANDIDATE_9_2308|52=20231118-03:45:38.000|56=DTL|11=00341|21=3|38=288|40=2|44=162.282887996272|54=1|55=MSFT|58=New Order Single|59=0|60=20231118-03:45:38.239|10=086|
20231118-03:45:38.000000000 : 8=FIX.4.2|9=147|35=F|34=344|49=OPS_CANDIDATE_9_2308|52=20231118-03:45:38.000|56=DTL|11=00342|41=00147|54=1|55=BAC|58=Order Cancel Request|60=20231118-03:45:38.240|10=091|
20231118-03:45:38.000000000 : 8=FIX.4.2|9=176|35=D|34=345|49=OPS_CANDIDATE_9_2308|52=20231118-03:45:38.000|56=DTL|11=00343|21=3|38=439|40=2|44=124.604454850948|54=1|55=BAC|58=New Order Single|59=0|60=20231118-03:45:38.240|10=204|
20231118-03:45:38.000000000 : 8=FIX.4.2|9=176|35=D|34=346|49=OPS_CANDIDATE_9_2308|52=20231118-03:45:38.000|56=DTL|11=00344|21=3|38=456|40=2|44=129.955382766937|54=1|55=BAC|58=New Order Single|59=0|60=20231118-03:45:38.241|10=224|
20231118-03:45:38.000000000 : 8=FIX.4.2|9=148|35=F|34=347|49=OPS_CANDIDATE_9_2308|52=20231118-03:45:38.000|56=DTL|11=00345|41=00141|54=1|55=MSFT|58=Order Cancel Request|60=20231118-03:45:38.241|10=209|
20231118-03:45:38.000000000 : 8=FIX.4.2|9=176|35=D|34=348|49=OPS_CANDIDATE_9_2308|52=20231118-03:45:38.000|56=DTL|11=00346|21=3|38=364|40=2|44=130.409105676012|54=1|55=BAC|58=New Order Single|59=0|60=20231118-03:45:38.241|10=189|
20231118-03:45:38.000000000 : 8=FIX.4.2|9=147|35=F|34=349|49=OPS_CANDIDATE_9_2308|52=20231118-03:45:38.000|56=DTL|11=00347|41=00067|54=1|55=BAC|58=Order Cancel Request|60=20231118-03:45:38.242|10=104|
20231118-03:45:38.000000000 : 8=FIX.4.2|9=176|35=D|34=350|49=OPS_CANDIDATE_9_2308|52=20231118-03:45:38.000|56=DTL|11=00348|21=3|38=439|40=2|44=106.796696654153|54=1|55=BAC|58=New Order Single|59=0|60=20231118-03:45:38.242|10=217|
20231118-03:45:38.000000000 : 8=FIX.4.2|9=147|35=F|34=351|49=OPS_CANDIDATE_9_2308|52=20231118-03:45:38.000|56=DTL|11=00349|41=00235|54=1|55=BAC|58=Order Cancel Request|60=20231118-03:45:38.242|10=096|
20231118-03:45:38.000000000 : 8=FIX.4.2|9=176|35=D|34=352|49=OPS_CANDIDATE_9_2308|52=20231118-03:45:38.000|56=DTL|11=00350|21=3|38=402|40=2|44=115.787850326792|54=1|55=BAC|58=New Order Single|59=0|60=20231118-03:45:38.242|10=199|
20231118-03:45:38.000000000 : 8=FIX.4.2|9=147|35=F|34=353|49=OPS_CANDIDATE_9_2308|52=20231118-03:45:38.000|56=DTL|11=00351|41=00025|54=1|55=BAC|58=Order Cancel Request|60=20231118-03:45:38.243|10=089|
20231118-03:45:38.000000000 : 8=FIX.4.2|9=177|35=D|34=354|49=OPS_CANDIDATE_9_2308|52=20231118-03:45:38.000|56=DTL|11=00352|21=3|38=284|40=2|44=184.219375169526|54=1|55=AAPL|58=New Order Single|59=0|60=20231118-03:45:38.243|10=043|
20231118-03:45:38.000000000 : 8=FIX.4.2|9=176|35=D|34=355|49=OPS_CANDIDATE_9_2308|52=20231118-03:45:38.000|56=DTL|11=00353|21=3|38=220|40=2|44=163.771379071857|54=1|55=BAC|58=New Order Single|59=0|60=20231118-03:45:38.243|10=205|
20231118-03:45:38.000000000 : 8=FIX.4.2|9=148|35=F|34=356|49=OPS_CANDIDATE_9_2308|52=20231118-03:45:38.000|56=DTL|11=00354|41=00269|54=1|55=AAPL|58=Order Cancel Request|60=20231118-03:45:38.243|10=194|
20231118-03:45:38.000000000 : 8=FIX.4.2|9=177|35=D|34=357|49=OPS_CANDIDATE_9_2308|52=20231118-03:45:38.000|56=DTL|11=00355|21=3|38=300|40=2|44=109.173718883448|54=1|55=AAPL|58=New Order Single|59=0|60=20231118-03:45:38.244|10=042|
20231118-03:45:38.000000000 : 8=FIX.4.2|9=147|35=F|34=358|49=OPS_CANDIDATE_9_2308|52=20231118-03:45:38.000|56=DTL|11=00356|41=00312|54=1|55=BAC|58=Order Cancel Request|60=20231118-03:45:38.244|10=099|
20231118-03:45:38.000000000 : 8=FIX.4.2|9=177|35=D|34=359|49=OPS_CANDIDATE_9_2308|52=20231118-03:45:38.000|56=DTL|11=00357|21=3|38=269|40=2|44=150.930575340677|54=1|55=MSFT|58=New Order Single|59=0|60=20231118-03:45:38.244|10=078|
20231118-03:45:38.000000000 : 8=FIX.4.2|9=177|35=D|34=360|49=OPS_CANDIDATE_9_2308|52=20231118-03:45:38.000|56=DTL|11=00358|21=3|38=301|40=2|44=101.990749687975|54=1|55=AAPL|58=New Order Single|59=0|60=20231118-03:45:38.244|10=050|
20231118-03:45:38.000000000 : 8=FIX.4.2|9=176|35=D|34=361|49=OPS_CANDIDATE_9_2308|52=20231118-03:45:38.000|56=DTL|11=00359|21=3|38=419|40=2|44=132.92546500098|54=1|55=MSFT|58=New Order Single|59=0|60=20231118-03:45:38.245|10=014|
20231118-03:45:38.000000000 : 8=FIX.4.2|9=176|35=D|34=362|49=OPS_CANDIDATE_9_2308|52=20231118-03:45:38.000|56=DTL|11=00360|21=3|38=288|40=2|44=191.638382415999|54=1|55=BAC|58=New Order Single|59=0|60=20231118-03:45:38.245|10=223|
20231118-03:45:38.000000000 : 8=FIX.4.2|9=148|35=F|34=363|49=OPS_CANDIDATE_9_2308|52=20231118-03:45:38.000|56=DTL|11=00361|41=00263|54=1|55=AAPL|58=Order Cancel Request|60=20231118-03:45:38.245|10=186|
20231118-03:45:38.000000000 : 8=FIX.4.2|9=177|35=D|34=364|49=OPS_CANDIDATE_9_2308|52=20231118-03:45:38.000|56=DTL|11=00362|21=3|38=483|40=2|44=197.977218453111|54=1|55=MSFT|58=New Order Single|59=0|60=20231118-03:45:38.246|10=074|
20231118-03:45:38.000000000 : 8=FIX.4.2|9=147|35=F|34=365|49=OPS_CANDIDATE_9_2308|52=20231118-03:45:38.000|56=DTL|11=00363|41=00066|54=1|55=BAC|58=Order Cancel Request|60=20231118-03:45:38.246|10=103|
20231118-03:45:38.000000000 : 8=FIX.4.2|9=176|35=D|34=366|49=OPS_CANDIDATE_9_2308|52=20231118-03:45:38.000|56=DTL|11=00364|21=3|38=326|40=2|44=179.478537572496|54=1|55=BAC|58=New Order Single|59=0|60=20231118-03:45:38.246|10=231|
20231118-03:45:38.000000000 : 8=FIX.4.2|9=148|35=F|34=367|49=OPS_CANDIDATE_9_2308|52=20231118-03:45:38.000|56=DTL|11=00365|41=00206|54=1|55=MSFT|58=Order Cancel Request|60=20231118-03:45:38.246|10=220|
20231118-03:45:38.000000000 : 8=FIX.4.2|9=176|35=D|34=368|49=OPS_CANDIDATE_9_2308|52=20231118-03:45:38.000|56=DTL|11=00366|21=3|38=145|40=2|44=161.48176084102|54=1|55=MSFT|58=New Order Single|59=0|60=20231118-03:45:38.247|10=012|
20231118-03:45:38.000000000 : 8=FIX.4.2|9=147|35=F|34=369|49=OPS_CANDIDATE_9_2308|52=20231118-03:45:38.000|56=DTL|11=00367|41=00014|54=1|55=BAC|58=Order Cancel Request|60=20231118-03:45:38.247|10=105|
20231118-03:45:38.000000000 : 8=FIX.4.2|9=175|35=D|34=370|49=OPS_CANDIDATE_9_2308|52=20231118-03:45:38.000|56=DTL|11=00368|21=3|38=167|40=2|44=100.90877459099|54=1|55=BAC|58=New Order Single|59=0|60=20231118-03:45:38.247|10=169|
20231118-03:45:38.000000000 : 8=FIX.4.2|9=148|35=F|34=371|49=OPS_CANDIDATE_9_2308|52=20231118-03:45:38.000|56=DTL|11=00369|41=00015|54=1|55=AAPL|58=Order Cancel Request|60=20231118-03:45:38.247|10=190|
20231118-03:45:38.000000000 : 8=FIX.4.2|9=177|35=D|34=372|49=OPS_CANDIDATE_9_2308|52=20231118-03:45:38.000|56=DTL|11=00370|21=3|38=416|40=2|44=137.706999563626|54=1|55=AAPL|58=New Order Single|59=0|60=20231118-03:45:38.248|10=055|
20231118-03:45:38.000000000 : 8=FIX.4.2|9=174|35=D|34=373|49=OPS_CANDIDATE_9_2308|52=20231118-03:45:38.000|56=DTL|11=00371|21=3|38=216|40=2|44=125.2939738496|54=1|55=BAC|58=New Order Single|59=0|60=20231118-03:45:38.248|10=113|
20231118-03:45:38.000000000 : 8=FIX.4.2|9=147|35=F|34=374|49=OPS_CANDIDATE_9_2308|52=20231118-03:45:38.000|56=DTL|11=00372|41=00207|54=1|55=BAC|58=Order Cancel Request|60=20231118-03:45:38.248|10=102|
20231118-03:45:38.000000000 : 8=FIX.4.2|9=177|35=D|34=375|49=OPS_CANDIDATE_9_2308|52=20231118-03:45:38.000|56=DTL|11=00373|21=3|38=136|40=2|44=175.095476676971|54=1|55=MSFT|58=New Order Single|59=0|60=20231118-03:45:38.248|10=089|
20231118-03:45:38.000000000 : 8=FIX.4.2|9=177|35=D|34=376|49=OPS_CANDIDATE_9_2308|52=20231118-03:45:38.000|56=DTL|11=00374|21=3|38=473|40=2|44=130.161038226334|54=1|55=AAPL|58=New Order Single|59=0|60=20231118-03:45:38.249|10=031|
20231118-03:45:38.000000000 : 8=FIX.4.2|9=177|35=D|34=377|49=OPS_CANDIDATE_9_2308|52=20231118-03:45:38.000|56=DTL|11=00375|21=3|38=103|40=2|44=139.358082405271|54=1|55=AAPL|58=New Order Single|59=0|60=20231118-03:45:38.249|10=038|
20231118-03:45:38.000000000 : 8=FIX.4.2|9=176|35=D|34=378|49=OPS_CANDIDATE_9_2308|52=20231118-03:45:38.000|56=DTL|11=00376|21=3|38=226|40=2|44=175.734465940887|54=1|55=BAC|58=New Order Single|59=0|60=20231118-03:45:38.249|10=233|
20231118-03:45:38.000000000 : 8=FIX.4.2|9=147|35=F|34=379|49=OPS_CANDIDATE_9_2308|52=20231118-03:45:38.000|56=DTL|11=00377|41=00124|54=1|55=BAC|58=Order Cancel Request|60=20231118-03:45:38.250|10=103|
20231118-03:45:38.000000000 : 8=FIX.4.2|9=176|35=D|34=380|49=OPS_CANDIDATE_9_2308|52=20231118-03:45:38.000|56=DTL|11=00378|21=3|38=493|40=2|44=171.408154858998|54=1|55=BAC|58=New Order Single|59=0|60=20231118-03:45:38.250|10=226|
20231118-03:45:38.000000000 : 8=FIX.4.2|9=148|35=F|34=381|49=OPS_CANDIDATE_9_2308|52=20231118-03:45:38.000|56=DTL|11=00379|41=00206|54=1|55=MSFT|58=Order Cancel Request|60=20231118-03:45:38.250|10=216|
20231118-03:45:38.000000000 : 8=FIX.4.2|9=175|35=D|34=382|49=OPS_CANDIDATE_9_2308|52=20231118-03:45:38.000|56=DTL|11=00380|21=3|38=355|40=2|44=174.41434136156|54=1|55=BAC|58=New Order Single|59=0|60=20231118-03:45:38.250|10=141|
20231118-03:45:38.000000000 : 8=FIX.4.2|9=148|35=F|34=383|49=OPS_CANDIDATE_9_2308|52=20231118-03:45:38.000|56=DTL|11=00381|41=00146|54=1|55=MSFT|58=Order Cancel Request|60=20231118-03:45:38.251|10=215|
20231118-03:45:38.000000000 : 8=FIX.4.2|9=177|35=D|34=384|49=OPS_CANDIDATE_9_2308|52=20231118-03:45:38.000|56=DTL|11=00382|21=3|38=387|40=2|44=127.644901783239|54=1|55=AAPL|58=New Order Single|59=0|60=20231118-03:45:38.251|10=049|
20231118-03:45:38.000000000 : 8=FIX.4.2|9=175|35=D|34=385|49=OPS_CANDIDATE_9_2308|52=20231118-03:45:38.000|56=DTL|11=00383|21=3|38=154|40=2|44=120.40844395833|54=1|55=BAC|58=New Order Single|59=0|60=20231118-03:45:38.251|10=149|
20231118-03:45:38.000000000 : 8=FIX.4.2|9=148|35=F|34=386|49=OPS_CANDIDATE_9_2308|52=20231118-03:45:38.000|56=DTL|11=00384|41=00097|54=1|55=MSFT|58=Order Cancel Request|60=20231118-03:45:38.251|10=226|
20231118-03:45:38.000000000 : 8=FIX.4.2|9=177|35=D|34=387|49=OPS_CANDIDATE_9_2308|52=20231118-03:45:38.000|56=DTL|11=00385|21=3|38=296|40=2|44=104.024640576902|54=1|55=MSFT|58=New Order Single|59=0|60=20231118-03:45:38.252|10=067|
20231118-03:45:38.000000000 : 8=FIX.4.2|9=176|35=D|34=388|49=OPS_CANDIDATE_9_2308|52=20231118-03:45:38.000|56=DTL|11=00386|21=3|38=155|40=2|44=132.864297262057|54=1|55=BAC|58=New Order Single|59=0|60=20231118-03:45:38.252|10=216|
20231118-03:45:38.000000000 : 8=FIX.4.2|9=148|35=F|34=389|49=OPS_CANDIDATE_9_2308|52=20231118-03:45:38.000|56=DTL|11=00387|41=00042|54=1|55=MSFT|58=Order Cancel Request|60=20231118-03:45:38.252|10=223|
20231118-03:45:38.000000000 : 8=FIX.4.2|9=177|35=D|34=390|49=OPS_CANDIDATE_9_2308|52=20231118-03:45:38.000|56=DTL|11=00388|21=3|38=258|40=2|44=144.559201751676|54=1|55=AAPL|58=New Order Single|59=0|60=20231118-03:45:38.252|10=047|
20231118-03:45:38.000000000 : 8=FIX.4.2|9=177|35=D|34=391|49=OPS_CANDIDATE_9_2308|52=20231118-03:45:38.000|56=DTL|11=00389|21=3|38=359|40=2|44=159.815795120632|54=1|55=AAPL|58=New Order Single|59=0|60=20231118-03:45:38.253|10=053|
20231118-03:45:38.000000000 : 8=FIX.4.2|9=148|35=F|34=392|49=OPS_CANDIDATE_9_2308|52=20231118-03:45:38.000|56=DTL|11=00390|41=00065|54=1|55=AAPL|58=Order Cancel Request|60=20231118-03:45:38.253|10=189|
20231118-03:45:38.000000000 : 8=FIX.4.2|9=177|35=D|34=393|49=OPS_CANDIDATE_9_2308|52=20231118-03:45:38.000|56=DTL|11=00391|21=3|38=236|40=2|44=104.604664037683|54=1|55=MSFT|58=New Order Single|59=0|60=20231118-03:45:38.253|10=064|
20231118-03:45:38.000000000 : 8=FIX.4.2|9=176|35=D|34=394|49=OPS_CANDIDATE_9_2308|52=20231118-03:45:38.000|56=DTL|11=00392|21=3|38=320|40=2|44=104.991816036699|54=1|55=BAC|58=New Order Single|59=0|60=20231118-03:45:38.254|10=214|
20231118-03:45:38.000000000 : 8=FIX.4.2|9=148|35=F|34=395|49=OPS_CANDIDATE_9_2308|52=20231118-03:45:38.000|56=DTL|11=00393|41=00095|54=1|55=AAPL|58=Order Cancel Request|60=20231118-03:45:38.254|10=199|
20231118-03:45:38.000000000 : 8=FIX.4.2|9=177|35=D|34=396|49=OPS_CANDIDATE_9_2308|52=20231118-03:45:38.000|56=DTL|11=00394|21=3|38=171|40=2|44=131.008661282411|54=1|55=AAPL|58=New Order Single|59=0|60=20231118-03:45:38.254|10=027|
20231118-03:45:38.000000000 : 8=FIX.4.2|9=147|35=F|34=397|49=OPS_CANDIDATE_9_2308|52=20231118-03:45:38.000|56=DTL|11=00395|41=00392|54=1|55=BAC|58=Order Cancel Request|60=20231118-03:45:38.255|10=115|
20231118-03:45:38.000000000 : 8=FIX.4.2|9=177|35=D|34=398|49=OPS_CANDIDATE_9_2308|52=20231118-03:45:38.000|56=DTL|11=00396|21=3|38=392|40=2|44=162.233557044233|54=1|55=MSFT|58=New Order Single|59=0|60=20231118-03:45:38.257|10=073|
20231118-03:45:38.000000000 : 8=FIX.4.2|9=177|35=D|34=399|49=OPS_CANDIDATE_9_2308|52=20231118-03:45:38.000|56=DTL|11=00397|21=3|38=205|40=2|44=172.744040340402|54=1|55=AAPL|58=New Order Single|59=0|60=20231118-03:45:38.258|10=033|
20231118-03:45:38.000000000 : 8=FIX.4.2|9=147|35=F|34=400|49=OPS_CANDIDATE_9_2308|52=20231118-03:45:38.000|56=DTL|11=00398|41=00392|54=1|55=BAC|58=Order Cancel Request|60=20231118-03:45:38.258|10=106|
20231118-03:45:38.000000000 : 8=FIX.4.2|9=177|35=D|34=401|49=OPS_CANDIDATE_9_2308|52=20231118-03:45:38.000|56=DTL|11=00399|21=3|38=376|40=2|44=185.687986727837|54=1|55=AAPL|58=New Order Single|59=0|60=20231118-03:45:38.259|10=079|
20231118-03:45:38.000000000 : 8=FIX.4.2|9=176|35=D|34=402|49=OPS_CANDIDATE_9_2308|52=20231118-03:45:38.000|56=DTL|11=00400|21=3|38=410|40=2|44=102.770852526476|54=1|55=BAC|58=New Order Single|59=0|60=20231118-03:45:38.259|10=189|
20231118-03:45:38.000000000 : 8=FIX.4.2|9=148|35=F|34=403|49=OPS_CANDIDATE_9_2308|52=20231118-03:45:38.000|56=DTL|11=00401|41=00125|54=1|55=MSFT|58=Order Cancel Request|60=20231118-03:45:38.260|10=198|
20231118-03:45:38.000000000 : 8=FIX.4.2|9=175|35=D|34=404|49=OPS_CANDIDATE_9_2308|52=20231118-03:45:38.000|56=DTL|11=00402|21=3|38=415|40=2|44=145.70607409894|54=1|55=BAC|58=New Order Single|59=0|60=20231118-03:45:38.260|10=143|
20231118-03:45:38.000000000 : 8=FIX.4.2|9=148|35=F|34=405|49=OPS_CANDIDATE_9_2308|52=20231118-03:45:38.000|56=DTL|11=00403|41=00370|54=1|55=AAPL|58=Order Cancel Request|60=20231118-03:45:38.261|10=177|
20231118-03:45:38.000000000 : 8=FIX.4.2|9=177|35=D|34=406|49=OPS_CANDIDATE_9_2308|52=20231118-03:45:38.000|56=DTL|11=00404|21=3|38=304|40=2|44=124.459463673896|54=1|55=MSFT|58=New Order Single|59=0|60=20231118-03:45:38.261|10=068|
20231118-03:45:38.000000000 : 8=FIX.4.2|9=176|35=D|34=407|49=OPS_CANDIDATE_9_2308|52=20231118-03:45:38.000|56=DTL|11=00405|21=3|38=183|40=2|44=158.818023711923|54=1|55=BAC|58=New Order Single|59=0|60=20231118-03:45:38.262|10=197|
20231118-03:45:38.000000000 : 8=FIX.4.2|9=148|35=F|34=408|49=OPS_CANDIDATE_9_2308|52=20231118-03:45:38.000|56=DTL|11=00406|41=00233|54=1|55=MSFT|58=Order Cancel Request|60=20231118-03:45:38.262|10=210|
20231118-03:45:38.000000000 : 8=FIX.4.2|9=176|35=D|34=409|49=OPS_CANDIDATE_9_2308|52=20231118-03:45:38.000|56=DTL|11=00407|21=3|38=173|40=2|44=122.880661738688|54=1|55=BAC|58=New Order Single|59=0|60=20231118-03:45:38.263|10=216|
20231118-03:45:38.000000000 : 8=FIX.4.2|9=148|35=F|34=410|49=OPS_CANDIDATE_9_2308|52=20231118-03:45:38.000|56=DTL|11=00408|41=00134|54=1|55=MSFT|58=Order Cancel Request|60=20231118-03:45:38.263|10=206|
20231118-03:45:38.000000000 : 8=FIX.4.2|9=177|35=D|34=411|49=OPS_CANDIDATE_9_2308|52=20231118-03:45:38.000|56=DTL|11=00409|21=3|38=361|40=2|44=146.751908212599|54=1|55=AAPL|58=New Order Single|59=0|60=20231118-03:45:38.263|10=038|
20231118-03:45:38.000000000 : 8=FIX.4.2|9=176|35=D|34=412|49=OPS_CANDIDATE_9_2308|52=20231118-03:45:38.000|56=DTL|11=00410|21=3|38=472|40=2|44=141.58736885352|54=1|55=MSFT|58=New Order Single|59=0|60=20231118-03:45:38.263|10=010|
20231118-03:45:38.000000000 : 8=FIX.4.2|9=176|35=D|34=413|49=OPS_CANDIDATE_9_2308|52=20231118-03:45:38.000|56=DTL|11=00411|21=3|38=374|40=2|44=153.495331179654|54=1|55=BAC|58=New Order Single|59=0|60=20231118-03:45:38.264|10=202|
20231118-03:45:38.000000000 : 8=FIX.4.2|9=148|35=F|34=414|49=OPS_CANDIDATE_9_2308|52=20231118-03:45:38.000|56=DTL|11=00412|41=00374|54=1|55=AAPL|58=Order Cancel Request|60=20231118-03:45:38.264|10=184|
20231118-03:45:38.000000000 : 8=FIX.4.2|9=177|35=D|34=415|49=OPS_CANDIDATE_9_2308|52=20231118-03:45:38.000|56=DTL|11=00413|21=3|38=226|40=2|44=154.192608631941|54=1|55=AAPL|58=New Order Single|59=0|60=20231118-03:45:38.264|10=029|
20231118-03:45:38.000000000 : 8=FIX.4.2|9=148|35=F|34=416|49=OPS_CANDIDATE_9_2308|52=20231118-03:45:38.000|56=DTL|11=00414|41=00337|54=1|55=MSFT|58=Order Cancel Request|60=20231118-03:45:38.265|10=216|
20231118-03:45:38.000000000 : 8=FIX.4.2|9=176|35=D|34=417|49=OPS_CANDIDATE_9_2308|52=20231118-03:45:38.000|56=DTL|11=00415|21=3|38=384|40=2|44=124.987248299328|54=1|55=BAC|58=New Order Single|59=0|60=20231118-03:45:38.265|10=224|
20231118-03:45:38.000000000 : 8=FIX.4.2|9=148|35=F|34=418|49=OPS_CANDIDATE_9_2308|52=20231118-03:45:38.000|56=DTL|11=00416|41=00216|54=1|55=AAPL|58=Order Cancel Request|60=20231118-03:45:38.265|10=188|
20231118-03:45:38.000000000 : 8=FIX.4.2|9=176|35=D|34=419|49=OPS_CANDIDATE_9_2308|52=20231118-03:45:38.000|56=DTL|11=00417|21=3|38=222|40=2|44=147.556849128565|54=1|55=BAC|58=New Order Single|59=0|60=20231118-03:45:38.265|10=217|
20231118-03:45:38.000000000 : 8=FIX.4.2|9=177|35=D|34=420|49=OPS_CANDIDATE_9_2308|52=20231118-03:45:38.000|56=DTL|11=00418|21=3|38=323|40=2|44=132.425934659886|54=1|55=AAPL|58=New Order Single|59=0|60=20231118-03:45:38.266|10=045|
20231118-03:45:38.000000000 : 8=FIX.4.2|9=147|35=F|34=421|49=OPS_CANDIDATE_9_2308|52=20231118-03:45:38.000|56=DTL|11=00419|41=00241|54=1|55=BAC|58=Order Cancel Request|60=20231118-03:45:38.266|10=095|
20231118-03:45:38.000000000 : 8=FIX.4.2|9=176|35=D|34=422|49=OPS_CANDIDATE_9_2308|52=20231118-03:45:38.000|56=DTL|11=00420|21=3|38=153|40=2|44=174.321533449724|54=1|55=BAC|58=New Order Single|59=0|60=20231118-03:45:38.266|10=192|
20231118-03:45:38.000000000 : 8=FIX.4.2|9=148|35=F|34=423|49=OPS_CANDIDATE_9_2308|52=20231118-03:45:38.000|56=DTL|11=00421|41=00015|54=1|55=AAPL|58=Order Cancel Request|60=20231118-03:45:38.266|10=178|
20231118-03:45:38.000000000 : 8=FIX.4.2|9=176|35=D|34=424|49=OPS_CANDIDATE_9_2308|52=20231118-03:45:38.000|56=DTL|11=00422|21=3|38=308|40=2|44=191.083138102054|54=1|55=BAC|58=New Order Single|59=0|60=20231118-03:45:38.267|10=186|
20231118-03:45:38.000000000 : 8=FIX.4.2|9=176|35=D|34=425|49=OPS_CANDIDATE_9_2308|52=20231118-03:45:38.000|56=DTL|11=00423|21=3|38=366|40=2|44=162.074068758552|54=1|55=BAC|58=New Order Single|59=0|60=20231118-03:45:38.267|10=212|
20231118-03:45:38.000000000 : 8=FIX.4.2|9=148|35=F|34=426|49=OPS_CANDIDATE_9_2308|52=20231118-03:45:38.000|56=DTL|11=00424|41=00271|54=1|55=MSFT|58=Order Cancel Request|60=20231118-03:45:38.267|10=217|
20231118-03:45:38.000000000 : 8=FIX.4.2|9=177|35=D|34=427|49=OPS_CANDIDATE_9_2308|52=20231118-03:45:38.000|56=DTL|11=00425|21=3|38=225|40=2|44=191.352620427616|54=1|55=MSFT|58=New Order Single|59=0|60=20231118-03:45:38.268|10=061|
20231118-03:45:38.000000000 : 8=FIX.4.2|9=148|35=F|34=428|49=OPS_CANDIDATE_9_2308|52=20231118-03:45:38.000|56=DTL|11=00426|41=00028|54=1|55=MSFT|58=Order Cancel Request|60=20231118-03:45:38.268|10=222|
20231118-03:45:38.000000000 : 8=FIX.4.2|9=177|35=D|34=429|49=OPS_CANDIDATE_9_2308|52=20231118-03:45:38.000|56=DTL|11=00427|21=3|38=356|40=2|44=168.338838561177|54=1|55=MSFT|58=New Order Single|59=0|60=20231118-03:45:38.268|10=090|
20231118-03:45:38.000000000 : 8=FIX.4.2|9=147|35=F|34=430|49=OPS_CANDIDATE_9_2308|52=20231118-03:45:38.000|56=DTL|11=00428|41=00423|54=1|55=BAC|58=Order Cancel Request|60=20231118-03:45:38.268|10=099|
20231118-03:45:38.000000000 : 8=FIX.4.2|9=176|35=D|34=431|49=OPS_CANDIDATE_9_2308|52=20231118-03:45:38.000|56=DTL|11=00429|21=3|38=379|40=2|44=160.241652076842|54=1|55=BAC|58=New Order Single|59=0|60=20231118-03:45:38.269|10=209|
20231118-03:45:38.000000000 : 8=FIX.4.2|9=148|35=F|34=432|49=OPS_CANDIDATE_9_2308|52=20231118-03:45:38.000|56=DTL|11=00430|41=00038|54=1|55=MSFT|58=Order Cancel Request|60=20231118-03:45:38.269|10=214|
20231118-03:45:38.000000000 : 8=FIX.4.2|9=176|35=D|34=433|49=OPS_CANDIDATE_9_2308|52=20231118-03:45:38.000|56=DTL|11=00431|21=3|38=160|40=2|44=189.736776582789|54=1|55=BAC|58=New Order Single|59=0|60=20231118-03:45:38.269|10=231|
20231118-03:45:38.000000000 : 8=FIX.4.2|9=177|35=D|34=434|49=OPS_CANDIDATE_9_2308|52=20231118-03:45:38.000|56=DTL|11=00432|21=3|38=467|40=2|44=100.101191367489|54=1|55=AAPL|58=New Order Single|59=0|60=20231118-03:45:38.269|10=034|
20231118-03:45:38.000000000 : 8=FIX.4.2|9=147|35=F|34=435|49=OPS_CANDIDATE_9_2308|52=20231118-03:45:38.000|56=DTL|11=00433|41=00378|54=1|55=BAC|58=Order Cancel Request|60=20231118-03:45:38.270|10=102|
20231118-03:45:38.000000000 : 8=FIX.4.2|9=177|35=D|34=436|49=OPS_CANDIDATE_9_2308|52=20231118-03:45:38.000|56=DTL|11=00434|21=3|38=500|40=2|44=171.808201189789|54=1|55=AAPL|58=New Order Single|59=0|60=20231118-03:45:38.270|10=037|
20231118-03:45:38.000000000 : 8=FIX.4.2|9=147|35=F|34=437|49=OPS_CANDIDATE_9_2308|52=20231118-03:45:38.000|56=DTL|11=00435|41=00083|54=1|55=BAC|58=Order Cancel Request|60=20231118-03:45:38.270|10=099|
20231118-03:45:38.000000000 : 8=FIX.4.2|9=177|35=D|34=438|49=OPS_CANDIDATE_9_2308|52=20231118-03:45:38.000|56=DTL|11=00436|21=3|38=480|40=2|44=195.851050047527|54=1|55=MSFT|58=New Order Single|59=0|60=20231118-03:45:38.271|10=066|
20231118-03:45:38.000000000 : 8=FIX.4.2|9=177|35=D|34=439|49=OPS_CANDIDATE_9_2308|52=20231118-03:45:38.000|56=DTL|11=00437|21=3|38=344|40=2|44=195.412459212447|54=1|55=AAPL|58=New Order Single|59=0|60=20231118-03:45:38.271|10=040|
20231118-03:45:38.000000000 : 8=FIX.4.2|9=148|35=F|34=440|49=OPS_CANDIDATE_9_2308|52=20231118-03:45:38.000|56=DTL|11=00438|41=00280|54=1|55=MSFT|58=Order Cancel Request|60=20231118-03:45:38.271|10=213|
20231118-03:45:38.000000000 : 8=FIX.4.2|9=176|35=D|34=441|49=OPS_CANDIDATE_9_2308|52=20231118-03:45:38.000|56=DTL|11=00439|21=3|38=190|40=2|44=170.145006229896|54=1|55=BAC|58=New Order Single|59=0|60=20231118-03:45:38.271|10=201|
20231118-03:45:38.000000000 : 8=FIX.4.2|9=148|35=F|34=442|49=OPS_CANDIDATE_9_2308|52=20231118-03:45:38.000|56=DTL|11=00440|41=00377|54=1|55=MSFT|58=Order Cancel Request|60=20231118-03:45:38.272|10=216|
20231118-03:45:38.000000000 : 8=FIX.4.2|9=176|35=D|34=443|49=OPS_CANDIDATE_9_2308|52=20231118-03:45:38.000|56=DTL|11=00441|21=3|38=157|40=2|44=182.914932952476|54=1|55=BAC|58=New Order Single|59=0|60=20231118-03:45:38.272|10=212|
20231118-03:45:38.000000000 : 8=FIX.4.2|9=148|35=F|34=444|49=OPS_CANDIDATE_9_2308|52=20231118-03:45:38.000|56=DTL|11=00442|41=00361|54=1|55=MSFT|58=Order Cancel Request|60=20231118-03:45:38.272|10=213|
20231118-03:45:38.000000000 : 8=FIX.4.2|9=177|35=D|34=445|49=OPS_CANDIDATE_9_2308|52=20231118-03:45:38.000|56=DTL|11=00443|21=3|38=140|40=2|44=108.662112445247|54=1|55=AAPL|58=New Order Single|59=0|60=20231118-03:45:38.273|10=023|
20231118-03:45:38.000000000 : 8=FIX.4.2|9=148|35=F|34=446|49=OPS_CANDIDATE_9_2308|52=20231118-03:45:38.000|56=DTL|11=00444|41=00220|54=1|55=MSFT|58=Order Cancel Request|60=20231118-03:45:38.273|10=212|
20231118-03:45:38.000000000 : 8=FIX.4.2|9=177|35=D|34=447|49=OPS_CANDIDATE_9_2308|52=20231118-03:45:38.000|56=DTL|11=00445|21=3|38=404|40=2|44=144.139356614247|54=1|55=AAPL|58=New Order Single|59=0|60=20231118-03:45:38.273|10=037|
20231118-03:45:38.000000000 : 8=FIX.4.2|9=148|35=F|34=448|49=OPS_CANDIDATE_9_2308|52=20231118-03:45:38.000|56=DTL|11=00446|41=00131|54=1|55=MSFT|58=Order Cancel Request|60=20231118-03:45:38.273|10=217|
20231118-03:45:38.000000000 : 8=FIX.4.2|9=177|35=D|34=449|49=OPS_CANDIDATE_9_2308|52=20231118-03:45:38.000|56=DTL|11=00447|21=3|38=272|40=2|44=189.508371399703|54=1|55=MSFT|58=New Order Single|59=0|60=20231118-03:45:38.274|10=086|
20231118-03:45:38.000000000 : 8=FIX.4.2|9=148|35=F|34=450|49=OPS_CANDIDATE_9_2308|52=20231118-03:45:38.000|56=DTL|11=00448|41=00065|54=1|55=AAPL|58=Order Cancel Request|60=20231118-03:45:38.274|10=191|
20231118-03:45:38.000000000 : 8=FIX.4.2|9=176|35=D|34=451|49=OPS_CANDIDATE_9_2308|52=20231118-03:45:38.000|56=DTL|11=00449|21=3|38=252|40=2|44=138.919540762344|54=1|55=BAC|58=New Order Single|59=0|60=20231118-03:45:38.274|10=211|
20231118-03:45:38.000000000 : 8=FIX.4.2|9=148|35=F|34=452|49=OPS_CANDIDATE_9_2308|52=20231118-03:45:38.000|56=DTL|11=00450|41=00271|54=1|55=MSFT|58=Order Cancel Request|60=20231118-03:45:38.275|10=214|
20231118-03:45:38.000000000 : 8=FIX.4.2|9=177|35=D|34=453|49=OPS_CANDIDATE_9_2308|52=20231118-03:45:38.000|56=DTL|11=00451|21=3|38=396|40=2|44=172.237018497886|54=1|55=AAPL|58=New Order Single|59=0|60=20231118-03:45:38.275|10=056|
20231118-03:45:38.000000000 : 8=FIX.4.2|9=148|35=F|34=454|49=OPS_CANDIDATE_9_2308|52=20231118-03:45:38.000|56=DTL|11=00452|41=00065|54=1|55=AAPL|58=Order Cancel Request|60=20231118-03:45:38.276|10=192|
